{
  "_format": "hh-sol-artifact-1",
  "contractName": "CathedralKlerosBridge",
  "sourceName": "contracts/CathedralKlerosBridge.sol",
  "abi": [
    {
      "inputs": [
        {
          "internalType": "address",
          "name": "_veaRelayer",
          "type": "address"
        }
      ],
      "stateMutability": "nonpayable",
      "type": "constructor"
    },
    {
      "anonymous": false,
      "inputs": [
        {
          "indexed": true,
          "internalType": "address",
          "name": "sender",
          "type": "address"
        },
        {
          "indexed": false,
          "internalType": "bytes",
          "name": "data",
          "type": "bytes"
        }
      ],
      "name": "BridgeMessageReceived",
      "type": "event"
    },
    {
      "inputs": [
        {
          "internalType": "bytes",
          "name": "data",
          "type": "bytes"
        }
      ],
      "name": "receiveMessage",
      "outputs": [],
      "stateMutability": "nonpayable",
      "type": "function"
    },
    {
      "inputs": [],
      "name": "veaRelayer",
      "outputs": [
        {
          "internalType": "address",
          "name": "",
          "type": "address"
        }
      ],
      "stateMutability": "view",
      "type": "function"
    }
  ],
  "bytecode": "0x608034607057601f61024f38819003918201601f19168301916001600160401b03831184841017607557808492602094604052833981010312607057516001600160a01b03811690819003607057600080546001600160a01b0319169190911790556040516101c3908161008c8239f35b600080fd5b634e487b7160e01b600052604160045260246000fdfe608080604052600436101561001357600080fd5b60003560e01c9081637f8efb051461015c575063f953cec71461003557600080fd5b346101575760203660031901126101575760043567ffffffffffffffff811161015757366023820112156101575780600401359067ffffffffffffffff82116101575736602483830101116101575773ffffffffffffffffffffffffffffffffffffffff6000541633036100f9577f7678df14446f7cf9174ab63a8cfe06bcd39b7a7a388c9a659729da6a06686f209082602460405192602084528260208501520160408301376000604084830101526040813394601f80199101168101030190a2005b60646040517f08c379a000000000000000000000000000000000000000000000000000000000815260206004820152600b60248201527f4e6f742072656c617965720000000000000000000000000000000000000000006044820152fd5b600080fd5b346101575760003660031901126101575760209073ffffffffffffffffffffffffffffffffffffffff600054168152f3fea2646970667358221220772ce648f8417562fa7819e44ca9accbcf6dfdcd6e920a02d2ddfb3a396d8e4264736f6c634300081c0033",
  "linkReferences": {},
  "deployedLinkReferences": {}
}