{
  "_format": "hh-sol-artifact-1",
  "contractName": "CathedralKlerosBridge",
  "sourceName": "contracts/CathedralKlerosBridge.sol",
  "abi": [
    {
      "inputs": [
        {
          "internalType": "address",
          "name": "_veaRelayer",
          "type": "address"
        }
      ],
      "stateMutability": "nonpayable",
      "type": "constructor"
    },
    {
      "anonymous": false,
      "inputs": [
        {
          "indexed": true,
          "internalType": "address",
          "name": "sender",
          "type": "address"
        },
        {
          "indexed": false,
          "internalType": "bytes",
          "name": "data",
          "type": "bytes"
        }
      ],
      "name": "BridgeMessageReceived",
      "type": "event"
    },
    {
      "inputs": [
        {
          "internalType": "bytes",
          "name": "data",
          "type": "bytes"
        }
      ],
      "name": "receiveMessage",
      "outputs": [],
      "stateMutability": "nonpayable",
      "type": "function"
    },
    {
      "inputs": [],
      "name": "veaRelayer",
      "outputs": [
        {
          "internalType": "address",
          "name": "",
          "type": "address"
        }
      ],
      "stateMutability": "view",
      "type": "function"
    }
  ],
  "bytecode": "0x608060405234801561001057600080fd5b506040516104df3803806104df833981810160405281019061003291906100db565b806000806101000a81548173ffffffffffffffffffffffffffffffffffffffff021916908373ffffffffffffffffffffffffffffffffffffffff16021790555050610108565b600080fd5b600073ffffffffffffffffffffffffffffffffffffffff82169050919050565b60006100a88261007d565b9050919050565b6100b88161009d565b81146100c357600080fd5b50565b6000815190506100d5816100af565b92915050565b6000602082840312156100f1576100f0610078565b5b60006100ff848285016100c6565b91505092915050565b6103c8806101176000396000f3fe608060405234801561001057600080fd5b50600436106100365760003560e01c80637f8efb051461003b578063f953cec714610059575b600080fd5b610043610075565b60405161005091906101bc565b60405180910390f35b610073600480360381019061006e9190610246565b610099565b005b60008054906101000a900473ffffffffffffffffffffffffffffffffffffffff1681565b60008054906101000a900473ffffffffffffffffffffffffffffffffffffffff1673ffffffffffffffffffffffffffffffffffffffff163373ffffffffffffffffffffffffffffffffffffffff1614610127576040517f08c379a000000000000000000000000000000000000000000000000000000000815260040161011e906102f0565b60405180910390fd5b3373ffffffffffffffffffffffffffffffffffffffff167f7678df14446f7cf9174ab63a8cfe06bcd39b7a7a388c9a659729da6a06686f20838360405161016f92919061036e565b60405180910390a25050565b600073ffffffffffffffffffffffffffffffffffffffff82169050919050565b60006101a68261017b565b9050919050565b6101b68161019b565b82525050565b60006020820190506101d160008301846101ad565b92915050565b600080fd5b600080fd5b600080fd5b600080fd5b600080fd5b60008083601f840112610206576102056101e1565b5b8235905067ffffffffffffffff811115610223576102226101e6565b5b60208301915083600182028301111561023f5761023e6101eb565b5b9250929050565b6000806020838503121561025d5761025c6101d7565b5b600083013567ffffffffffffffff81111561027b5761027a6101dc565b5b610287858286016101f0565b92509250509250929050565b600082825260208201905092915050565b7f4e6f742072656c61796572000000000000000000000000000000000000000000600082015250565b60006102da600b83610293565b91506102e5826102a4565b602082019050919050565b60006020820190508181036000830152610309816102cd565b9050919050565b600082825260208201905092915050565b82818337600083830152505050565b6000601f19601f8301169050919050565b600061034d8385610310565b935061035a838584610321565b61036383610330565b840190509392505050565b60006020820190508181036000830152610389818486610341565b9050939250505056fea2646970667358221220ccb57c164ae739b06c8a8dbfca67fbba13e8ea71d6ffd6e89b0a32cdcd931a3764736f6c63430008130033",
  "linkReferences": {},
  "deployedLinkReferences": {}
}