{
  "_format": "hh-sol-artifact-1",
  "contractName": "CathedralSPHINCSVerifier",
  "sourceName": "contracts/CathedralSPHINCSVerifier.sol",
  "abi": [
    {
      "inputs": [
        {
          "internalType": "bytes",
          "name": "message",
          "type": "bytes"
        },
        {
          "internalType": "bytes",
          "name": "signature",
          "type": "bytes"
        },
        {
          "internalType": "bytes32",
          "name": "publicKeyRoot",
          "type": "bytes32"
        }
      ],
      "name": "verifySPHINCS",
      "outputs": [
        {
          "internalType": "bool",
          "name": "",
          "type": "bool"
        }
      ],
      "stateMutability": "pure",
      "type": "function"
    }
  ],
  "bytecode": "0x60808060405234601557610a44908161001b8239f35b600080fdfe608080604052600436101561001357600080fd5b60003560e01c63e8756e661461002857600080fd5b346108575760603660031901126108575760043567ffffffffffffffff811161085757366023820112156108575780600401359067ffffffffffffffff821161085c5761007f601f8301601f191660200184610872565b8183523660248383010111610857578160009260246020930183860137830101526024359067ffffffffffffffff821161085757366023830112156108575781600401359167ffffffffffffffff831161085757602481019236602482840101116108575760443592610f7082036107ed5760405160208101916001600160801b031987351683528560408301528181519160005b8381106107d55750508061013b92606092016000838201520301601f198101835282610872565b51902061089094610fff60e083901c811694608084901c909116926001600160801b03191660008589116107d25750604051919061012061017c8185610872565b60088452601f1901366020850137610200916102206000805b60088110610684575050505050506001600160801b0319906040516101d0816101c26020820180956108f1565b03601f198101835282610872565b51902016866010116103d9576102b0808801958689116103d9576101f6878a88876108af565b509160009188610560946040519661020e8789610872565b86368937604051602081019182528460408201528a60608201528660808201526061815261023d608182610872565b51902085610100815b602b83106105d7575050505061058096604051916102648984610872565b602b8352601f198901968736602086013780815b602b811061054b5750505050506001600160801b0319906040516102a4816101c26020820180956108f1565b519020169b116103d95760c089019a8b8a116103d9578b916102d2916102cc848d8d8c6108af565b91610930565b98116103d957890196878a116103d95790879392916102f3858c8a896108af565b5091600091604051946103068187610872565b3686376040516020810191825289604082015283606082015283608082015260618152610334608182610872565b51902082610100815b602b831061049657505050506103566040519586610872565b602b855236602086013780815b602b81106103ef5750505050506001600160801b03199060405161038f816101c26020820180956108f1565b5190201696116103d95760c08401918285116103d9576020966102cc60c094876103c2976103bc966108af565b92610894565b506001600160801b03198060405193169116148152f35b634e487b7160e01b600052601160045260246000fd5b909192939495506001600160801b031982850135169160108101809111610482579161042760ff610420848961091f565b51166108a1565b84905b80821061044f5750509060019161044182896108c7565b520190899594939291610363565b90916001600160801b03196001916040516020810191825260208152610476604082610872565b5190201692019061042a565b602484634e487b7160e01b81526011600452fd5b90919293949596979850600382106104f7575b600784821c166104b9848a61091f565b52600381018091116104e3579060021981019081116104e3578c989796959493926001019161033d565b602486634e487b7160e01b81526011600452fd5b505090604051602081019182527fff000000000000000000000000000000000000000000000000000000000000008360f81b1660408201526021815261053e604182610872565b51902090610100846104a9565b909192939495506001600160801b031982850135169160108101809111610482579161057c60ff610420848961091f565b84905b8082106105a45750509060019161059682896108c7565b5201908e9594939291610278565b90916001600160801b031960019160405160208101918252602081526105cb604082610872565b5190201692019061057f565b90919293945060038210610630575b600784821c166105f6848c61091f565b526003810180911161061c5790600219810190811161061c578d94939260010191610246565b602488634e487b7160e01b81526011600452fd5b505090604051602081019182527fff000000000000000000000000000000000000000000000000000000000000008360f81b16604082015260218152610677604182610872565b51902090610100866105e6565b61ffff60405160208101908782528b60408201528d6060820152836080820152608081526106b360a082610872565b51902016916001600160801b0319603482870101351690601081018091116103d9579290604051906106e58683610872565b601082528836602084013760005b6010811061079b5750916000915b60108310610721575050509060019161071a828a6108c7565b5201610195565b9091926001600160801b031960019161073a86856108c7565b5185871c8416610771576040519060208201928352604082015260408152610763606082610872565b51902016935b019190610701565b906040519060208201928352604082015260408152610791606082610872565b5190201693610769565b946001600160801b03196034828a969596010135166107ba87866108c7565b52601081018091116103d957949192916001016106f3565b80fd5b60208282018101516060878401015285935001610114565b608460405162461bcd60e51b815260206004820152603260248201527f43617468656472616c535048494e435356657269666965723a20696e76616c6960448201527f64207369676e6174757265206c656e67746800000000000000000000000000006064820152fd5b600080fd5b634e487b7160e01b600052604160045260246000fd5b90601f8019910116810190811067ffffffffffffffff82111761085c57604052565b919082018092116103d957565b60070390600782116103d957565b90939293848311610857578411610857578101920390565b80518210156108db5760209160051b010190565b634e487b7160e01b600052603260045260246000fd5b805160209091019060005b8181106109095750505090565b82518452602093840193909201916001016108fc565b90602b8110156108db5760051b0190565b909160bf19016109ca5791906000915b600c831061094e5750505090565b9091926001600160801b0319600191818660041b860135168385881c16156000146109a0576040519060208201928352604082015260408152610992606082610872565b51902016935b019190610940565b9060405190602082019283526040820152604081526109c0606082610872565b5190201693610998565b606460405162461bcd60e51b815260206004820152601f60248201527f496e76616c6964204d65726b6c6520617574682070617468206c656e677468006044820152fdfea2646970667358221220c422ec7e4a8a99b83d876100b012b979931cbabd697e8e9caf4811eb425102cc64736f6c634300081c0033",
  "linkReferences": {},
  "deployedLinkReferences": {}
}