{"contracts/PNKTheosisOracle.sol":{"PNKTheosisOracle":{"abi":[{"inputs":[],"stateMutability":"nonpayable","type":"constructor"},{"anonymous":false,"inputs":[{"indexed":true,"internalType":"address","name":"juror","type":"address"},{"indexed":false,"internalType":"uint256","name":"theosisScore","type":"uint256"}],"name":"TheosisUpdated","type":"event"},{"inputs":[{"internalType":"address","name":"juror","type":"address"}],"name":"getJurorTheosis","outputs":[{"internalType":"uint256","name":"","type":"uint256"}],"stateMutability":"view","type":"function"},{"inputs":[{"internalType":"address","name":"","type":"address"}],"name":"jurorTheosis","outputs":[{"internalType":"uint256","name":"","type":"uint256"}],"stateMutability":"view","type":"function"},{"inputs":[],"name":"owner","outputs":[{"internalType":"address","name":"","type":"address"}],"stateMutability":"view","type":"function"},{"inputs":[{"internalType":"address","name":"juror","type":"address"},{"internalType":"uint256","name":"theosisScore","type":"uint256"}],"name":"updateTheosis","outputs":[],"stateMutability":"nonpayable","type":"function"}],"evm":{"bytecode":{"linkReferences":{},"object":"60808060405234602757600180546001600160a01b031916331790556101cd908161002d8239f35b600080fdfe608080604052600436101561001357600080fd5b60003560e01c9081638da5cb5b1461015d57508063c13796191461004b578063dede70951461008a5763e0cf80cf1461004b57600080fd5b34610085576020366003190112610085576001600160a01b0361006c610181565b1660005260006020526020604060002054604051908152f35b600080fd5b34610085576040366003190112610085576100a3610181565b602435906001600160a01b036001541633036100ff5760206001600160a01b037fa7f2e839ce4c5bf9d749f44d8926e6c5a58dbbfaaeb7af4f14235f5cd0ca5e88921692836000526000825280604060002055604051908152a2005b60646040517f08c379a000000000000000000000000000000000000000000000000000000000815260206004820152600960248201527f4e6f74206f776e657200000000000000000000000000000000000000000000006044820152fd5b34610085576000366003190112610085576020906001600160a01b03600154168152f35b600435906001600160a01b03821682036100855756fea2646970667358221220aae0a69460ae0406cffd938527bc1704291cc15f6416278bea554b81693d5e0764736f6c634300081c0033","opcodes":"PUSH1 0x80 DUP1 PUSH1 0x40 MSTORE CALLVALUE PUSH1 0x27 JUMPI PUSH1 0x1 DUP1 SLOAD PUSH1 0x1 PUSH1 0x1 PUSH1 0xA0 SHL SUB NOT AND CALLER OR SWAP1 SSTORE PUSH2 0x1CD SWAP1 DUP2 PUSH2 0x2D DUP3 CODECOPY RETURN JUMPDEST PUSH1 0x0 DUP1 REVERT INVALID PUSH1 0x80 DUP1 PUSH1 0x40 MSTORE PUSH1 0x4 CALLDATASIZE LT ISZERO PUSH2 0x13 JUMPI PUSH1 0x0 DUP1 REVERT JUMPDEST PUSH1 0x0 CALLDATALOAD PUSH1 0xE0 SHR SWAP1 DUP2 PUSH4 0x8DA5CB5B EQ PUSH2 0x15D JUMPI POP DUP1 PUSH4 0xC1379619 EQ PUSH2 0x4B JUMPI DUP1 PUSH4 0xDEDE7095 EQ PUSH2 0x8A JUMPI PUSH4 0xE0CF80CF EQ PUSH2 0x4B JUMPI PUSH1 0x0 DUP1 REVERT JUMPDEST CALLVALUE PUSH2 0x85 JUMPI PUSH1 0x20 CALLDATASIZE PUSH1 0x3 NOT ADD SLT PUSH2 0x85 JUMPI PUSH1 0x1 PUSH1 0x1 PUSH1 0xA0 SHL SUB PUSH2 0x6C PUSH2 0x181 JUMP JUMPDEST AND PUSH1 0x0 MSTORE PUSH1 0x0 PUSH1 0x20 MSTORE PUSH1 0x20 PUSH1 0x40 PUSH1 0x0 KECCAK256 SLOAD PUSH1 0x40 MLOAD SWAP1 DUP2 MSTORE RETURN JUMPDEST PUSH1 0x0 DUP1 REVERT JUMPDEST CALLVALUE PUSH2 0x85 JUMPI PUSH1 0x40 CALLDATASIZE PUSH1 0x3 NOT ADD SLT PUSH2 0x85 JUMPI PUSH2 0xA3 PUSH2 0x181 JUMP JUMPDEST PUSH1 0x24 CALLDATALOAD SWAP1 PUSH1 0x1 PUSH1 0x1 PUSH1 0xA0 SHL SUB PUSH1 0x1 SLOAD AND CALLER SUB PUSH2 0xFF JUMPI PUSH1 0x20 PUSH1 0x1 PUSH1 0x1 PUSH1 0xA0 SHL SUB PUSH32 0xA7F2E839CE4C5BF9D749F44D8926E6C5A58DBBFAAEB7AF4F14235F5CD0CA5E88 SWAP3 AND SWAP3 DUP4 PUSH1 0x0 MSTORE PUSH1 0x0 DUP3 MSTORE DUP1 PUSH1 0x40 PUSH1 0x0 KECCAK256 SSTORE PUSH1 0x40 MLOAD SWAP1 DUP2 MSTORE LOG2 STOP JUMPDEST PUSH1 0x64 PUSH1 0x40 MLOAD PUSH32 0x8C379A000000000000000000000000000000000000000000000000000000000 DUP2 MSTORE PUSH1 0x20 PUSH1 0x4 DUP3 ADD MSTORE PUSH1 0x9 PUSH1 0x24 DUP3 ADD MSTORE PUSH32 0x4E6F74206F776E65720000000000000000000000000000000000000000000000 PUSH1 0x44 DUP3 ADD MSTORE REVERT JUMPDEST CALLVALUE PUSH2 0x85 JUMPI PUSH1 0x0 CALLDATASIZE PUSH1 0x3 NOT ADD SLT PUSH2 0x85 JUMPI PUSH1 0x20 SWAP1 PUSH1 0x1 PUSH1 0x1 PUSH1 0xA0 SHL SUB PUSH1 0x1 SLOAD AND DUP2 MSTORE RETURN JUMPDEST PUSH1 0x4 CALLDATALOAD SWAP1 PUSH1 0x1 PUSH1 0x1 PUSH1 0xA0 SHL SUB DUP3 AND DUP3 SUB PUSH2 0x85 JUMPI JUMP INVALID LOG2 PUSH5 0x6970667358 0x22 SLT KECCAK256 0xAA 0xE0 0xA6 SWAP5 PUSH1 0xAE DIV MOD 0xCF REVERT SWAP4 DUP6 0x27 0xBC OR DIV 0x29 SHR 0xC1 PUSH0 PUSH5 0x16278BEA55 0x4B DUP2 PUSH10 0x3D5E0764736F6C634300 ADDMOD SHR STOP CALLER "},"methodIdentifiers":{"getJurorTheosis(address)":"c1379619","jurorTheosis(address)":"e0cf80cf","owner()":"8da5cb5b","updateTheosis(address,uint256)":"dede7095"}}}}}