{"contracts/CathedralKlerosBridgeWithVoting.sol":{"CathedralKlerosBridgeWithVoting":{"abi":[{"inputs":[{"internalType":"address","name":"_veaRelayer","type":"address"},{"internalType":"address","name":"_theosisOracle","type":"address"}],"stateMutability":"nonpayable","type":"constructor"},{"anonymous":false,"inputs":[{"indexed":true,"internalType":"address","name":"sender","type":"address"},{"indexed":false,"internalType":"bytes","name":"data","type":"bytes"}],"name":"BridgeMessageReceived","type":"event"},{"inputs":[],"name":"baseWeight","outputs":[{"internalType":"uint256","name":"","type":"uint256"}],"stateMutability":"view","type":"function"},{"inputs":[{"internalType":"address","name":"juror","type":"address"}],"name":"getVotingWeight","outputs":[{"internalType":"uint256","name":"weight","type":"uint256"}],"stateMutability":"view","type":"function"},{"inputs":[{"internalType":"bytes","name":"data","type":"bytes"}],"name":"receiveMessage","outputs":[],"stateMutability":"nonpayable","type":"function"},{"inputs":[],"name":"theosisOracle","outputs":[{"internalType":"contract PNKTheosisOracle","name":"","type":"address"}],"stateMutability":"view","type":"function"},{"inputs":[],"name":"veaRelayer","outputs":[{"internalType":"address","name":"","type":"address"}],"stateMutability":"view","type":"function"}],"evm":{"bytecode":{"linkReferences":{},"object":"608034608c57601f6103da38819003918201601f19168301916001600160401b038311848410176091578084926040948552833981010312608c57604b602060458360a7565b920160a7565b600080546001600160a01b039384166001600160a01b0319918216179091556103e86002556001805492909316911617905560405161031f90816100bb8239f35b600080fd5b634e487b7160e01b600052604160045260246000fd5b51906001600160a01b0382168203608c5756fe608080604052600436101561001357600080fd5b60003560e01c9081637780031b146102c5575080637f8efb051461029e578063d3fd636414610280578063d5da24b9146101705763f953cec71461005657600080fd5b3461016b57602036600319011261016b5760043567ffffffffffffffff811161016b573660238201121561016b5780600401359067ffffffffffffffff821161016b57366024838301011161016b576001600160a01b0360005416330361010d577f7678df14446f7cf9174ab63a8cfe06bcd39b7a7a388c9a659729da6a06686f209082602460405192602084528260208501520160408301376000604084830101526040813394601f80199101168101030190a2005b60646040517f08c379a000000000000000000000000000000000000000000000000000000000815260206004820152600b60248201527f4e6f742072656c617965720000000000000000000000000000000000000000006044820152fd5b600080fd5b3461016b57602036600319011261016b576004356001600160a01b03811680910361016b5760206001600160a01b0360015416916024604051809481937fc137961900000000000000000000000000000000000000000000000000000000835260048301525afa90811561027457600091610215575b506002549081018091116101ff57602090604051908152f35b634e487b7160e01b600052601160045260246000fd5b9060203d60201161026d575b601f8101601f1916830167ffffffffffffffff81118482101761025957602091849160405281010312610256575051816101e6565b80fd5b602483634e487b7160e01b81526041600452fd5b503d610221565b6040513d6000823e3d90fd5b3461016b57600036600319011261016b576020600254604051908152f35b3461016b57600036600319011261016b5760206001600160a01b0360005416604051908152f35b3461016b57600036600319011261016b576020906001600160a01b03600154168152f3fea26469706673582212204b7e2a573d0122e548f559990d59f77085a498098ddd48c5cbc8f887336bc81964736f6c634300081c0033","opcodes":"PUSH1 0x80 CALLVALUE PUSH1 0x8C JUMPI PUSH1 0x1F PUSH2 0x3DA CODESIZE DUP2 SWAP1 SUB SWAP2 DUP3 ADD PUSH1 0x1F NOT AND DUP4 ADD SWAP2 PUSH1 0x1 PUSH1 0x1 PUSH1 0x40 SHL SUB DUP4 GT DUP5 DUP5 LT OR PUSH1 0x91 JUMPI DUP1 DUP5 SWAP3 PUSH1 0x40 SWAP5 DUP6 MSTORE DUP4 CODECOPY DUP2 ADD SUB SLT PUSH1 0x8C JUMPI PUSH1 0x4B PUSH1 0x20 PUSH1 0x45 DUP4 PUSH1 0xA7 JUMP JUMPDEST SWAP3 ADD PUSH1 0xA7 JUMP JUMPDEST PUSH1 0x0 DUP1 SLOAD PUSH1 0x1 PUSH1 0x1 PUSH1 0xA0 SHL SUB SWAP4 DUP5 AND PUSH1 0x1 PUSH1 0x1 PUSH1 0xA0 SHL SUB NOT SWAP2 DUP3 AND OR SWAP1 SWAP2 SSTORE PUSH2 0x3E8 PUSH1 0x2 SSTORE PUSH1 0x1 DUP1 SLOAD SWAP3 SWAP1 SWAP4 AND SWAP2 AND OR SWAP1 SSTORE PUSH1 0x40 MLOAD PUSH2 0x31F SWAP1 DUP2 PUSH2 0xBB DUP3 CODECOPY RETURN JUMPDEST PUSH1 0x0 DUP1 REVERT JUMPDEST PUSH4 0x4E487B71 PUSH1 0xE0 SHL PUSH1 0x0 MSTORE PUSH1 0x41 PUSH1 0x4 MSTORE PUSH1 0x24 PUSH1 0x0 REVERT JUMPDEST MLOAD SWAP1 PUSH1 0x1 PUSH1 0x1 PUSH1 0xA0 SHL SUB DUP3 AND DUP3 SUB PUSH1 0x8C JUMPI JUMP INVALID PUSH1 0x80 DUP1 PUSH1 0x40 MSTORE PUSH1 0x4 CALLDATASIZE LT ISZERO PUSH2 0x13 JUMPI PUSH1 0x0 DUP1 REVERT JUMPDEST PUSH1 0x0 CALLDATALOAD PUSH1 0xE0 SHR SWAP1 DUP2 PUSH4 0x7780031B EQ PUSH2 0x2C5 JUMPI POP DUP1 PUSH4 0x7F8EFB05 EQ PUSH2 0x29E JUMPI DUP1 PUSH4 0xD3FD6364 EQ PUSH2 0x280 JUMPI DUP1 PUSH4 0xD5DA24B9 EQ PUSH2 0x170 JUMPI PUSH4 0xF953CEC7 EQ PUSH2 0x56 JUMPI PUSH1 0x0 DUP1 REVERT JUMPDEST CALLVALUE PUSH2 0x16B JUMPI PUSH1 0x20 CALLDATASIZE PUSH1 0x3 NOT ADD SLT PUSH2 0x16B JUMPI PUSH1 0x4 CALLDATALOAD PUSH8 0xFFFFFFFFFFFFFFFF DUP2 GT PUSH2 0x16B JUMPI CALLDATASIZE PUSH1 0x23 DUP3 ADD SLT ISZERO PUSH2 0x16B JUMPI DUP1 PUSH1 0x4 ADD CALLDATALOAD SWAP1 PUSH8 0xFFFFFFFFFFFFFFFF DUP3 GT PUSH2 0x16B JUMPI CALLDATASIZE PUSH1 0x24 DUP4 DUP4 ADD ADD GT PUSH2 0x16B JUMPI PUSH1 0x1 PUSH1 0x1 PUSH1 0xA0 SHL SUB PUSH1 0x0 SLOAD AND CALLER SUB PUSH2 0x10D JUMPI PUSH32 0x7678DF14446F7CF9174AB63A8CFE06BCD39B7A7A388C9A659729DA6A06686F20 SWAP1 DUP3 PUSH1 0x24 PUSH1 0x40 MLOAD SWAP3 PUSH1 0x20 DUP5 MSTORE DUP3 PUSH1 0x20 DUP6 ADD MSTORE ADD PUSH1 0x40 DUP4 ADD CALLDATACOPY PUSH1 0x0 PUSH1 0x40 DUP5 DUP4 ADD ADD MSTORE PUSH1 0x40 DUP2 CALLER SWAP5 PUSH1 0x1F DUP1 NOT SWAP2 ADD AND DUP2 ADD SUB ADD SWAP1 LOG2 STOP JUMPDEST PUSH1 0x64 PUSH1 0x40 MLOAD PUSH32 0x8C379A000000000000000000000000000000000000000000000000000000000 DUP2 MSTORE PUSH1 0x20 PUSH1 0x4 DUP3 ADD MSTORE PUSH1 0xB PUSH1 0x24 DUP3 ADD MSTORE PUSH32 0x4E6F742072656C61796572000000000000000000000000000000000000000000 PUSH1 0x44 DUP3 ADD MSTORE REVERT JUMPDEST PUSH1 0x0 DUP1 REVERT JUMPDEST CALLVALUE PUSH2 0x16B JUMPI PUSH1 0x20 CALLDATASIZE PUSH1 0x3 NOT ADD SLT PUSH2 0x16B JUMPI PUSH1 0x4 CALLDATALOAD PUSH1 0x1 PUSH1 0x1 PUSH1 0xA0 SHL SUB DUP2 AND DUP1 SWAP2 SUB PUSH2 0x16B JUMPI PUSH1 0x20 PUSH1 0x1 PUSH1 0x1 PUSH1 0xA0 SHL SUB PUSH1 0x1 SLOAD AND SWAP2 PUSH1 0x24 PUSH1 0x40 MLOAD DUP1 SWAP5 DUP2 SWAP4 PUSH32 0xC137961900000000000000000000000000000000000000000000000000000000 DUP4 MSTORE PUSH1 0x4 DUP4 ADD MSTORE GAS STATICCALL SWAP1 DUP2 ISZERO PUSH2 0x274 JUMPI PUSH1 0x0 SWAP2 PUSH2 0x215 JUMPI JUMPDEST POP PUSH1 0x2 SLOAD SWAP1 DUP2 ADD DUP1 SWAP2 GT PUSH2 0x1FF JUMPI PUSH1 0x20 SWAP1 PUSH1 0x40 MLOAD SWAP1 DUP2 MSTORE RETURN JUMPDEST PUSH4 0x4E487B71 PUSH1 0xE0 SHL PUSH1 0x0 MSTORE PUSH1 0x11 PUSH1 0x4 MSTORE PUSH1 0x24 PUSH1 0x0 REVERT JUMPDEST SWAP1 PUSH1 0x20 RETURNDATASIZE PUSH1 0x20 GT PUSH2 0x26D JUMPI JUMPDEST PUSH1 0x1F DUP2 ADD PUSH1 0x1F NOT AND DUP4 ADD PUSH8 0xFFFFFFFFFFFFFFFF DUP2 GT DUP5 DUP3 LT OR PUSH2 0x259 JUMPI PUSH1 0x20 SWAP2 DUP5 SWAP2 PUSH1 0x40 MSTORE DUP2 ADD SUB SLT PUSH2 0x256 JUMPI POP MLOAD DUP2 PUSH2 0x1E6 JUMP JUMPDEST DUP1 REVERT JUMPDEST PUSH1 0x24 DUP4 PUSH4 0x4E487B71 PUSH1 0xE0 SHL DUP2 MSTORE PUSH1 0x41 PUSH1 0x4 MSTORE REVERT JUMPDEST POP RETURNDATASIZE PUSH2 0x221 JUMP JUMPDEST PUSH1 0x40 MLOAD RETURNDATASIZE PUSH1 0x0 DUP3 RETURNDATACOPY RETURNDATASIZE SWAP1 REVERT JUMPDEST CALLVALUE PUSH2 0x16B JUMPI PUSH1 0x0 CALLDATASIZE PUSH1 0x3 NOT ADD SLT PUSH2 0x16B JUMPI PUSH1 0x20 PUSH1 0x2 SLOAD PUSH1 0x40 MLOAD SWAP1 DUP2 MSTORE RETURN JUMPDEST CALLVALUE PUSH2 0x16B JUMPI PUSH1 0x0 CALLDATASIZE PUSH1 0x3 NOT ADD SLT PUSH2 0x16B JUMPI PUSH1 0x20 PUSH1 0x1 PUSH1 0x1 PUSH1 0xA0 SHL SUB PUSH1 0x0 SLOAD AND PUSH1 0x40 MLOAD SWAP1 DUP2 MSTORE RETURN JUMPDEST CALLVALUE PUSH2 0x16B JUMPI PUSH1 0x0 CALLDATASIZE PUSH1 0x3 NOT ADD SLT PUSH2 0x16B JUMPI PUSH1 0x20 SWAP1 PUSH1 0x1 PUSH1 0x1 PUSH1 0xA0 SHL SUB PUSH1 0x1 SLOAD AND DUP2 MSTORE RETURN INVALID LOG2 PUSH5 0x6970667358 0x22 SLT KECCAK256 0x4B PUSH31 0x2A573D0122E548F559990D59F77085A498098DDD48C5CBC8F887336BC81964 PUSH20 0x6F6C634300081C00330000000000000000000000 "},"methodIdentifiers":{"baseWeight()":"d3fd6364","getVotingWeight(address)":"d5da24b9","receiveMessage(bytes)":"f953cec7","theosisOracle()":"7780031b","veaRelayer()":"7f8efb05"}}}}}