{"contracts/AxiarquiaMultiSigWallet.sol":{"AxiarquiaMultiSigWallet":{"abi":[{"anonymous":false,"inputs":[{"indexed":true,"internalType":"uint256","name":"txId","type":"uint256"},{"indexed":false,"internalType":"string","name":"reason","type":"string"}],"name":"AxiarquiaGateBlocked","type":"event"},{"anonymous":false,"inputs":[{"indexed":true,"internalType":"uint256","name":"txId","type":"uint256"},{"indexed":false,"internalType":"address","name":"signer","type":"address"}],"name":"TransactionApproved","type":"event"},{"anonymous":false,"inputs":[{"indexed":true,"internalType":"uint256","name":"txId","type":"uint256"},{"indexed":false,"internalType":"address","name":"to","type":"address"},{"indexed":false,"internalType":"uint256","name":"value","type":"uint256"}],"name":"TransactionCreated","type":"event"},{"anonymous":false,"inputs":[{"indexed":true,"internalType":"uint256","name":"txId","type":"uint256"}],"name":"TransactionExecuted","type":"event"},{"inputs":[{"internalType":"uint256","name":"_txId","type":"uint256"}],"name":"approveTransaction","outputs":[],"stateMutability":"nonpayable","type":"function"},{"inputs":[],"name":"maxDailyWithdrawal","outputs":[{"internalType":"uint256","name":"","type":"uint256"}],"stateMutability":"view","type":"function"},{"inputs":[{"internalType":"uint256","name":"","type":"uint256"}],"name":"signers","outputs":[{"internalType":"address","name":"","type":"address"}],"stateMutability":"view","type":"function"},{"inputs":[{"internalType":"address","name":"_to","type":"address"},{"internalType":"uint256","name":"_value","type":"uint256"},{"internalType":"bytes","name":"_data","type":"bytes"}],"name":"submitTransaction","outputs":[{"internalType":"uint256","name":"","type":"uint256"}],"stateMutability":"nonpayable","type":"function"},{"inputs":[],"name":"threshold","outputs":[{"internalType":"uint256","name":"","type":"uint256"}],"stateMutability":"view","type":"function"},{"inputs":[{"internalType":"uint256","name":"","type":"uint256"}],"name":"transactions","outputs":[{"internalType":"address","name":"to","type":"address"},{"internalType":"uint256","name":"value","type":"uint256"},{"internalType":"bytes","name":"data","type":"bytes"},{"internalType":"bool","name":"executed","type":"bool"},{"internalType":"uint256","name":"approvals","type":"uint256"},{"internalType":"uint256","name":"timestamp","type":"uint256"}],"stateMutability":"view","type":"function"},{"inputs":[{"internalType":"uint256","name":"_newMax","type":"uint256"}],"name":"updateMaxDailyWithdrawal","outputs":[],"stateMutability":"nonpayable","type":"function"},{"inputs":[{"internalType":"address","name":"","type":"address"}],"name":"whitelist","outputs":[{"internalType":"bool","name":"","type":"bool"}],"stateMutability":"view","type":"function"}],"evm":{"bytecode":{"linkReferences":{},"object":"60808060405234601557610a37908161001b8239f35b600080fdfe6080604052600436101561001257600080fd5b60003560e01c80632079fb9a14610898578063242232d1146105af57806342cde4e8146105915780639ace38c21461042d5780639b19251a146103ee578063b87d1bc5146103d0578063ba476289146103b75763c64274741461007457600080fd5b346103b25760603660031901126103b25761008d610984565b6024356044359167ffffffffffffffff83116103b257366023840112156103b25782600401356100bc8161099a565b936100ca6040519586610962565b81855236602483830101116103b257816000926024602093018388013785010152600080549290805b848110610378575b50610108919293506109b6565b6002548111801590610357575b156103135760045491680100000000000000008310156102fd57600183016004556001600160a01b0361014784610909565b50911693847fffffffffffffffffffffffff0000000000000000000000000000000000000000835416178255826001830155600282019080519067ffffffffffffffff82116102fd5761019a8354610928565b601f81116102b5575b509160209693918695938890601f831160011461022557918060409694927ffd27d176b6ebb21e0182c0e43df5818e0d632867e1eb47c383c58d221205fce398969460009261021a575b50508160011b916000199060031b1c19161790555b600642910155825191825286820152a2604051908152f35b0151905038806101ed565b90601f1983169184600052816000209260005b81811061029b57509260019285927ffd27d176b6ebb21e0182c0e43df5818e0d632867e1eb47c383c58d221205fce39a989660409a989610610282575b505050811b019055610202565b015160001960f88460031b161c19169055388080610275565b8284015185558b9a50600190940193928c01928c01610238565b836000526020600020601f840160051c810191602085106102f3575b601f0160051c01905b8181106102e757506101a3565b600081556001016102da565b90915081906102d1565b634e487b7160e01b600052604160045260246000fd5b606460405162461bcd60e51b815260206004820152601e60248201527f4158494152515549413a20616d6f756e74206f722077686974656c69737400006044820152fd5b506001600160a01b038216600052600360205260ff60406000205416610115565b6001600160a01b03610389826108d9565b905460039190911b1c1633146103a1576001016100f3565b5091925082915060016101086100fb565b600080fd5b346103b25760203660031901126103b257600435600255005b346103b25760003660031901126103b2576020600254604051908152f35b346103b25760203660031901126103b2576001600160a01b0361040f610984565b166000526003602052602060ff604060002054166040519015158152f35b346103b25760203660031901126103b2576004356004548110156103b25761045490610909565b506001600160a01b0381541690600181015460028201916040519283600082549261047e84610928565b808452936001811690811561056f5750600114610528575b506104a992509593959492940382610962565b60ff6003840154169260066004820154910154906040519586948552602085015260c060408501528251928360c086015260005b84811061051057505060e094600086858701015215156060850152608084015260a0830152601f80199101168101030190f35b602082820181015160e08a84010152889650016104dd565b90506000929192526020600020906000915b8183106105535750509060206104a99282010187610496565b6020919350806001915483858a0101520191019091859261053a565b9050602092506104a994915060ff191682840152151560051b82010187610496565b346103b25760003660031901126103b2576020600154604051908152f35b346103b25760203660031901126103b257600435600080600054915b828110610861575b506105de91506109b6565b6105e781610909565b506003810160ff81541661081d57600582016001600160a01b0333166000528060205260ff604060002054166107d9576001600160a01b0333166000526020526040600020600160ff1982541617905560048201805490600182018092116107c357819055837f924813d717e221b5f46dcd8a56da1679e4612584ab3237d55e5faabf6f6a30796020604051338152a2600154111561068257005b600160ff198254161790556001600160a01b038154169060026001820154910190604051916000908054906106b682610928565b91600181169081156107ac5750600114610777575b5050916000939181859403925af13d15610772573d6106e98161099a565b906106f76040519283610962565b8152600060203d92013e5b1561072e577f15ed165a284872ea7017f03df402a0cadfbfab588320ffaf83f160c2f82781c7600080a2005b606460405162461bcd60e51b815260206004820152601060248201527f457865637574696f6e206661696c6564000000000000000000000000000000006044820152fd5b610702565b90915060005260206000206000905b828210610798575050820181836106cb565b600181602092548488015201910190610786565b60ff191686525050801515028301905081836106cb565b634e487b7160e01b600052601160045260246000fd5b606460405162461bcd60e51b815260206004820152601060248201527f416c726561647920617070726f766564000000000000000000000000000000006044820152fd5b606460405162461bcd60e51b815260206004820152601060248201527f416c7265616479206578656375746564000000000000000000000000000000006044820152fd5b6001600160a01b03610872826108d9565b905460039190911b1c16331461088a576001016105cb565b5050506105de6001836105d3565b346103b25760203660031901126103b2576004356000548110156103b2576001600160a01b036108c96020926108d9565b90549060031b1c16604051908152f35b6000548110156108f3576000805260206000200190600090565b634e487b7160e01b600052603260045260246000fd5b6004548110156108f35760046000526007602060002091020190600090565b90600182811c92168015610958575b602083101461094257565b634e487b7160e01b600052602260045260246000fd5b91607f1691610937565b90601f8019910116810190811067ffffffffffffffff8211176102fd57604052565b600435906001600160a01b03821682036103b257565b67ffffffffffffffff81116102fd57601f01601f191660200190565b156109bd57565b606460405162461bcd60e51b815260206004820152600c60248201527f4e6f742061207369676e657200000000000000000000000000000000000000006044820152fdfea264697066735822122069cdad132f57851f9e66e5720ad375051f940f6ff17e93ea3ff9cf292cd4841564736f6c634300081c0033","opcodes":"PUSH1 0x80 DUP1 PUSH1 0x40 MSTORE CALLVALUE PUSH1 0x15 JUMPI PUSH2 0xA37 SWAP1 DUP2 PUSH2 0x1B DUP3 CODECOPY RETURN JUMPDEST PUSH1 0x0 DUP1 REVERT INVALID PUSH1 0x80 PUSH1 0x40 MSTORE PUSH1 0x4 CALLDATASIZE LT ISZERO PUSH2 0x12 JUMPI PUSH1 0x0 DUP1 REVERT JUMPDEST PUSH1 0x0 CALLDATALOAD PUSH1 0xE0 SHR DUP1 PUSH4 0x2079FB9A EQ PUSH2 0x898 JUMPI DUP1 PUSH4 0x242232D1 EQ PUSH2 0x5AF JUMPI DUP1 PUSH4 0x42CDE4E8 EQ PUSH2 0x591 JUMPI DUP1 PUSH4 0x9ACE38C2 EQ PUSH2 0x42D JUMPI DUP1 PUSH4 0x9B19251A EQ PUSH2 0x3EE JUMPI DUP1 PUSH4 0xB87D1BC5 EQ PUSH2 0x3D0 JUMPI DUP1 PUSH4 0xBA476289 EQ PUSH2 0x3B7 JUMPI PUSH4 0xC6427474 EQ PUSH2 0x74 JUMPI PUSH1 0x0 DUP1 REVERT JUMPDEST CALLVALUE PUSH2 0x3B2 JUMPI PUSH1 0x60 CALLDATASIZE PUSH1 0x3 NOT ADD SLT PUSH2 0x3B2 JUMPI PUSH2 0x8D PUSH2 0x984 JUMP JUMPDEST PUSH1 0x24 CALLDATALOAD PUSH1 0x44 CALLDATALOAD SWAP2 PUSH8 0xFFFFFFFFFFFFFFFF DUP4 GT PUSH2 0x3B2 JUMPI CALLDATASIZE PUSH1 0x23 DUP5 ADD SLT ISZERO PUSH2 0x3B2 JUMPI DUP3 PUSH1 0x4 ADD CALLDATALOAD PUSH2 0xBC DUP2 PUSH2 0x99A JUMP JUMPDEST SWAP4 PUSH2 0xCA PUSH1 0x40 MLOAD SWAP6 DUP7 PUSH2 0x962 JUMP JUMPDEST DUP2 DUP6 MSTORE CALLDATASIZE PUSH1 0x24 DUP4 DUP4 ADD ADD GT PUSH2 0x3B2 JUMPI DUP2 PUSH1 0x0 SWAP3 PUSH1 0x24 PUSH1 0x20 SWAP4 ADD DUP4 DUP9 ADD CALLDATACOPY DUP6 ADD ADD MSTORE PUSH1 0x0 DUP1 SLOAD SWAP3 SWAP1 DUP1 JUMPDEST DUP5 DUP2 LT PUSH2 0x378 JUMPI JUMPDEST POP PUSH2 0x108 SWAP2 SWAP3 SWAP4 POP PUSH2 0x9B6 JUMP JUMPDEST PUSH1 0x2 SLOAD DUP2 GT DUP1 ISZERO SWAP1 PUSH2 0x357 JUMPI JUMPDEST ISZERO PUSH2 0x313 JUMPI PUSH1 0x4 SLOAD SWAP2 PUSH9 0x10000000000000000 DUP4 LT ISZERO PUSH2 0x2FD JUMPI PUSH1 0x1 DUP4 ADD PUSH1 0x4 SSTORE PUSH1 0x1 PUSH1 0x1 PUSH1 0xA0 SHL SUB PUSH2 0x147 DUP5 PUSH2 0x909 JUMP JUMPDEST POP SWAP2 AND SWAP4 DUP5 PUSH32 0xFFFFFFFFFFFFFFFFFFFFFFFF0000000000000000000000000000000000000000 DUP4 SLOAD AND OR DUP3 SSTORE DUP3 PUSH1 0x1 DUP4 ADD SSTORE PUSH1 0x2 DUP3 ADD SWAP1 DUP1 MLOAD SWAP1 PUSH8 0xFFFFFFFFFFFFFFFF DUP3 GT PUSH2 0x2FD JUMPI PUSH2 0x19A DUP4 SLOAD PUSH2 0x928 JUMP JUMPDEST PUSH1 0x1F DUP2 GT PUSH2 0x2B5 JUMPI JUMPDEST POP SWAP2 PUSH1 0x20 SWAP7 SWAP4 SWAP2 DUP7 SWAP6 SWAP4 DUP9 SWAP1 PUSH1 0x1F DUP4 GT PUSH1 0x1 EQ PUSH2 0x225 JUMPI SWAP2 DUP1 PUSH1 0x40 SWAP7 SWAP5 SWAP3 PUSH32 0xFD27D176B6EBB21E0182C0E43DF5818E0D632867E1EB47C383C58D221205FCE3 SWAP9 SWAP7 SWAP5 PUSH1 0x0 SWAP3 PUSH2 0x21A JUMPI JUMPDEST POP POP DUP2 PUSH1 0x1 SHL SWAP2 PUSH1 0x0 NOT SWAP1 PUSH1 0x3 SHL SHR NOT AND OR SWAP1 SSTORE JUMPDEST PUSH1 0x6 TIMESTAMP SWAP2 ADD SSTORE DUP3 MLOAD SWAP2 DUP3 MSTORE DUP7 DUP3 ADD MSTORE LOG2 PUSH1 0x40 MLOAD SWAP1 DUP2 MSTORE RETURN JUMPDEST ADD MLOAD SWAP1 POP CODESIZE DUP1 PUSH2 0x1ED JUMP JUMPDEST SWAP1 PUSH1 0x1F NOT DUP4 AND SWAP2 DUP5 PUSH1 0x0 MSTORE DUP2 PUSH1 0x0 KECCAK256 SWAP3 PUSH1 0x0 JUMPDEST DUP2 DUP2 LT PUSH2 0x29B JUMPI POP SWAP3 PUSH1 0x1 SWAP3 DUP6 SWAP3 PUSH32 0xFD27D176B6EBB21E0182C0E43DF5818E0D632867E1EB47C383C58D221205FCE3 SWAP11 SWAP9 SWAP7 PUSH1 0x40 SWAP11 SWAP9 SWAP7 LT PUSH2 0x282 JUMPI JUMPDEST POP POP POP DUP2 SHL ADD SWAP1 SSTORE PUSH2 0x202 JUMP JUMPDEST ADD MLOAD PUSH1 0x0 NOT PUSH1 0xF8 DUP5 PUSH1 0x3 SHL AND SHR NOT AND SWAP1 SSTORE CODESIZE DUP1 DUP1 PUSH2 0x275 JUMP JUMPDEST DUP3 DUP5 ADD MLOAD DUP6 SSTORE DUP12 SWAP11 POP PUSH1 0x1 SWAP1 SWAP5 ADD SWAP4 SWAP3 DUP13 ADD SWAP3 DUP13 ADD PUSH2 0x238 JUMP JUMPDEST DUP4 PUSH1 0x0 MSTORE PUSH1 0x20 PUSH1 0x0 KECCAK256 PUSH1 0x1F DUP5 ADD PUSH1 0x5 SHR DUP2 ADD SWAP2 PUSH1 0x20 DUP6 LT PUSH2 0x2F3 JUMPI JUMPDEST PUSH1 0x1F ADD PUSH1 0x5 SHR ADD SWAP1 JUMPDEST DUP2 DUP2 LT PUSH2 0x2E7 JUMPI POP PUSH2 0x1A3 JUMP JUMPDEST PUSH1 0x0 DUP2 SSTORE PUSH1 0x1 ADD PUSH2 0x2DA JUMP JUMPDEST SWAP1 SWAP2 POP DUP2 SWAP1 PUSH2 0x2D1 JUMP JUMPDEST PUSH4 0x4E487B71 PUSH1 0xE0 SHL PUSH1 0x0 MSTORE PUSH1 0x41 PUSH1 0x4 MSTORE PUSH1 0x24 PUSH1 0x0 REVERT JUMPDEST PUSH1 0x64 PUSH1 0x40 MLOAD PUSH3 0x461BCD PUSH1 0xE5 SHL DUP2 MSTORE PUSH1 0x20 PUSH1 0x4 DUP3 ADD MSTORE PUSH1 0x1E PUSH1 0x24 DUP3 ADD MSTORE PUSH32 0x4158494152515549413A20616D6F756E74206F722077686974656C6973740000 PUSH1 0x44 DUP3 ADD MSTORE REVERT JUMPDEST POP PUSH1 0x1 PUSH1 0x1 PUSH1 0xA0 SHL SUB DUP3 AND PUSH1 0x0 MSTORE PUSH1 0x3 PUSH1 0x20 MSTORE PUSH1 0xFF PUSH1 0x40 PUSH1 0x0 KECCAK256 SLOAD AND PUSH2 0x115 JUMP JUMPDEST PUSH1 0x1 PUSH1 0x1 PUSH1 0xA0 SHL SUB PUSH2 0x389 DUP3 PUSH2 0x8D9 JUMP JUMPDEST SWAP1 SLOAD PUSH1 0x3 SWAP2 SWAP1 SWAP2 SHL SHR AND CALLER EQ PUSH2 0x3A1 JUMPI PUSH1 0x1 ADD PUSH2 0xF3 JUMP JUMPDEST POP SWAP2 SWAP3 POP DUP3 SWAP2 POP PUSH1 0x1 PUSH2 0x108 PUSH2 0xFB JUMP JUMPDEST PUSH1 0x0 DUP1 REVERT JUMPDEST CALLVALUE PUSH2 0x3B2 JUMPI PUSH1 0x20 CALLDATASIZE PUSH1 0x3 NOT ADD SLT PUSH2 0x3B2 JUMPI PUSH1 0x4 CALLDATALOAD PUSH1 0x2 SSTORE STOP JUMPDEST CALLVALUE PUSH2 0x3B2 JUMPI PUSH1 0x0 CALLDATASIZE PUSH1 0x3 NOT ADD SLT PUSH2 0x3B2 JUMPI PUSH1 0x20 PUSH1 0x2 SLOAD PUSH1 0x40 MLOAD SWAP1 DUP2 MSTORE RETURN JUMPDEST CALLVALUE PUSH2 0x3B2 JUMPI PUSH1 0x20 CALLDATASIZE PUSH1 0x3 NOT ADD SLT PUSH2 0x3B2 JUMPI PUSH1 0x1 PUSH1 0x1 PUSH1 0xA0 SHL SUB PUSH2 0x40F PUSH2 0x984 JUMP JUMPDEST AND PUSH1 0x0 MSTORE PUSH1 0x3 PUSH1 0x20 MSTORE PUSH1 0x20 PUSH1 0xFF PUSH1 0x40 PUSH1 0x0 KECCAK256 SLOAD AND PUSH1 0x40 MLOAD SWAP1 ISZERO ISZERO DUP2 MSTORE RETURN JUMPDEST CALLVALUE PUSH2 0x3B2 JUMPI PUSH1 0x20 CALLDATASIZE PUSH1 0x3 NOT ADD SLT PUSH2 0x3B2 JUMPI PUSH1 0x4 CALLDATALOAD PUSH1 0x4 SLOAD DUP2 LT ISZERO PUSH2 0x3B2 JUMPI PUSH2 0x454 SWAP1 PUSH2 0x909 JUMP JUMPDEST POP PUSH1 0x1 PUSH1 0x1 PUSH1 0xA0 SHL SUB DUP2 SLOAD AND SWAP1 PUSH1 0x1 DUP2 ADD SLOAD PUSH1 0x2 DUP3 ADD SWAP2 PUSH1 0x40 MLOAD SWAP3 DUP4 PUSH1 0x0 DUP3 SLOAD SWAP3 PUSH2 0x47E DUP5 PUSH2 0x928 JUMP JUMPDEST DUP1 DUP5 MSTORE SWAP4 PUSH1 0x1 DUP2 AND SWAP1 DUP2 ISZERO PUSH2 0x56F JUMPI POP PUSH1 0x1 EQ PUSH2 0x528 JUMPI JUMPDEST POP PUSH2 0x4A9 SWAP3 POP SWAP6 SWAP4 SWAP6 SWAP5 SWAP3 SWAP5 SUB DUP3 PUSH2 0x962 JUMP JUMPDEST PUSH1 0xFF PUSH1 0x3 DUP5 ADD SLOAD AND SWAP3 PUSH1 0x6 PUSH1 0x4 DUP3 ADD SLOAD SWAP2 ADD SLOAD SWAP1 PUSH1 0x40 MLOAD SWAP6 DUP7 SWAP5 DUP6 MSTORE PUSH1 0x20 DUP6 ADD MSTORE PUSH1 0xC0 PUSH1 0x40 DUP6 ADD MSTORE DUP3 MLOAD SWAP3 DUP4 PUSH1 0xC0 DUP7 ADD MSTORE PUSH1 0x0 JUMPDEST DUP5 DUP2 LT PUSH2 0x510 JUMPI POP POP PUSH1 0xE0 SWAP5 PUSH1 0x0 DUP7 DUP6 DUP8 ADD ADD MSTORE ISZERO ISZERO PUSH1 0x60 DUP6 ADD MSTORE PUSH1 0x80 DUP5 ADD MSTORE PUSH1 0xA0 DUP4 ADD MSTORE PUSH1 0x1F DUP1 NOT SWAP2 ADD AND DUP2 ADD SUB ADD SWAP1 RETURN JUMPDEST PUSH1 0x20 DUP3 DUP3 ADD DUP2 ADD MLOAD PUSH1 0xE0 DUP11 DUP5 ADD ADD MSTORE DUP9 SWAP7 POP ADD PUSH2 0x4DD JUMP JUMPDEST SWAP1 POP PUSH1 0x0 SWAP3 SWAP2 SWAP3 MSTORE PUSH1 0x20 PUSH1 0x0 KECCAK256 SWAP1 PUSH1 0x0 SWAP2 JUMPDEST DUP2 DUP4 LT PUSH2 0x553 JUMPI POP POP SWAP1 PUSH1 0x20 PUSH2 0x4A9 SWAP3 DUP3 ADD ADD DUP8 PUSH2 0x496 JUMP JUMPDEST PUSH1 0x20 SWAP2 SWAP4 POP DUP1 PUSH1 0x1 SWAP2 SLOAD DUP4 DUP6 DUP11 ADD ADD MSTORE ADD SWAP2 ADD SWAP1 SWAP2 DUP6 SWAP3 PUSH2 0x53A JUMP JUMPDEST SWAP1 POP PUSH1 0x20 SWAP3 POP PUSH2 0x4A9 SWAP5 SWAP2 POP PUSH1 0xFF NOT AND DUP3 DUP5 ADD MSTORE ISZERO ISZERO PUSH1 0x5 SHL DUP3 ADD ADD DUP8 PUSH2 0x496 JUMP JUMPDEST CALLVALUE PUSH2 0x3B2 JUMPI PUSH1 0x0 CALLDATASIZE PUSH1 0x3 NOT ADD SLT PUSH2 0x3B2 JUMPI PUSH1 0x20 PUSH1 0x1 SLOAD PUSH1 0x40 MLOAD SWAP1 DUP2 MSTORE RETURN JUMPDEST CALLVALUE PUSH2 0x3B2 JUMPI PUSH1 0x20 CALLDATASIZE PUSH1 0x3 NOT ADD SLT PUSH2 0x3B2 JUMPI PUSH1 0x4 CALLDATALOAD PUSH1 0x0 DUP1 PUSH1 0x0 SLOAD SWAP2 JUMPDEST DUP3 DUP2 LT PUSH2 0x861 JUMPI JUMPDEST POP PUSH2 0x5DE SWAP2 POP PUSH2 0x9B6 JUMP JUMPDEST PUSH2 0x5E7 DUP2 PUSH2 0x909 JUMP JUMPDEST POP PUSH1 0x3 DUP2 ADD PUSH1 0xFF DUP2 SLOAD AND PUSH2 0x81D JUMPI PUSH1 0x5 DUP3 ADD PUSH1 0x1 PUSH1 0x1 PUSH1 0xA0 SHL SUB CALLER AND PUSH1 0x0 MSTORE DUP1 PUSH1 0x20 MSTORE PUSH1 0xFF PUSH1 0x40 PUSH1 0x0 KECCAK256 SLOAD AND PUSH2 0x7D9 JUMPI PUSH1 0x1 PUSH1 0x1 PUSH1 0xA0 SHL SUB CALLER AND PUSH1 0x0 MSTORE PUSH1 0x20 MSTORE PUSH1 0x40 PUSH1 0x0 KECCAK256 PUSH1 0x1 PUSH1 0xFF NOT DUP3 SLOAD AND OR SWAP1 SSTORE PUSH1 0x4 DUP3 ADD DUP1 SLOAD SWAP1 PUSH1 0x1 DUP3 ADD DUP1 SWAP3 GT PUSH2 0x7C3 JUMPI DUP2 SWAP1 SSTORE DUP4 PUSH32 0x924813D717E221B5F46DCD8A56DA1679E4612584AB3237D55E5FAABF6F6A3079 PUSH1 0x20 PUSH1 0x40 MLOAD CALLER DUP2 MSTORE LOG2 PUSH1 0x1 SLOAD GT ISZERO PUSH2 0x682 JUMPI STOP JUMPDEST PUSH1 0x1 PUSH1 0xFF NOT DUP3 SLOAD AND OR SWAP1 SSTORE PUSH1 0x1 PUSH1 0x1 PUSH1 0xA0 SHL SUB DUP2 SLOAD AND SWAP1 PUSH1 0x2 PUSH1 0x1 DUP3 ADD SLOAD SWAP2 ADD SWAP1 PUSH1 0x40 MLOAD SWAP2 PUSH1 0x0 SWAP1 DUP1 SLOAD SWAP1 PUSH2 0x6B6 DUP3 PUSH2 0x928 JUMP JUMPDEST SWAP2 PUSH1 0x1 DUP2 AND SWAP1 DUP2 ISZERO PUSH2 0x7AC JUMPI POP PUSH1 0x1 EQ PUSH2 0x777 JUMPI JUMPDEST POP POP SWAP2 PUSH1 0x0 SWAP4 SWAP2 DUP2 DUP6 SWAP5 SUB SWAP3 GAS CALL RETURNDATASIZE ISZERO PUSH2 0x772 JUMPI RETURNDATASIZE PUSH2 0x6E9 DUP2 PUSH2 0x99A JUMP JUMPDEST SWAP1 PUSH2 0x6F7 PUSH1 0x40 MLOAD SWAP3 DUP4 PUSH2 0x962 JUMP JUMPDEST DUP2 MSTORE PUSH1 0x0 PUSH1 0x20 RETURNDATASIZE SWAP3 ADD RETURNDATACOPY JUMPDEST ISZERO PUSH2 0x72E JUMPI PUSH32 0x15ED165A284872EA7017F03DF402A0CADFBFAB588320FFAF83F160C2F82781C7 PUSH1 0x0 DUP1 LOG2 STOP JUMPDEST PUSH1 0x64 PUSH1 0x40 MLOAD PUSH3 0x461BCD PUSH1 0xE5 SHL DUP2 MSTORE PUSH1 0x20 PUSH1 0x4 DUP3 ADD MSTORE PUSH1 0x10 PUSH1 0x24 DUP3 ADD MSTORE PUSH32 0x457865637574696F6E206661696C656400000000000000000000000000000000 PUSH1 0x44 DUP3 ADD MSTORE REVERT JUMPDEST PUSH2 0x702 JUMP JUMPDEST SWAP1 SWAP2 POP PUSH1 0x0 MSTORE PUSH1 0x20 PUSH1 0x0 KECCAK256 PUSH1 0x0 SWAP1 JUMPDEST DUP3 DUP3 LT PUSH2 0x798 JUMPI POP POP DUP3 ADD DUP2 DUP4 PUSH2 0x6CB JUMP JUMPDEST PUSH1 0x1 DUP2 PUSH1 0x20 SWAP3 SLOAD DUP5 DUP9 ADD MSTORE ADD SWAP2 ADD SWAP1 PUSH2 0x786 JUMP JUMPDEST PUSH1 0xFF NOT AND DUP7 MSTORE POP POP DUP1 ISZERO ISZERO MUL DUP4 ADD SWAP1 POP DUP2 DUP4 PUSH2 0x6CB JUMP JUMPDEST PUSH4 0x4E487B71 PUSH1 0xE0 SHL PUSH1 0x0 MSTORE PUSH1 0x11 PUSH1 0x4 MSTORE PUSH1 0x24 PUSH1 0x0 REVERT JUMPDEST PUSH1 0x64 PUSH1 0x40 MLOAD PUSH3 0x461BCD PUSH1 0xE5 SHL DUP2 MSTORE PUSH1 0x20 PUSH1 0x4 DUP3 ADD MSTORE PUSH1 0x10 PUSH1 0x24 DUP3 ADD MSTORE PUSH32 0x416C726561647920617070726F76656400000000000000000000000000000000 PUSH1 0x44 DUP3 ADD MSTORE REVERT JUMPDEST PUSH1 0x64 PUSH1 0x40 MLOAD PUSH3 0x461BCD PUSH1 0xE5 SHL DUP2 MSTORE PUSH1 0x20 PUSH1 0x4 DUP3 ADD MSTORE PUSH1 0x10 PUSH1 0x24 DUP3 ADD MSTORE PUSH32 0x416C726561647920657865637574656400000000000000000000000000000000 PUSH1 0x44 DUP3 ADD MSTORE REVERT JUMPDEST PUSH1 0x1 PUSH1 0x1 PUSH1 0xA0 SHL SUB PUSH2 0x872 DUP3 PUSH2 0x8D9 JUMP JUMPDEST SWAP1 SLOAD PUSH1 0x3 SWAP2 SWAP1 SWAP2 SHL SHR AND CALLER EQ PUSH2 0x88A JUMPI PUSH1 0x1 ADD PUSH2 0x5CB JUMP JUMPDEST POP POP POP PUSH2 0x5DE PUSH1 0x1 DUP4 PUSH2 0x5D3 JUMP JUMPDEST CALLVALUE PUSH2 0x3B2 JUMPI PUSH1 0x20 CALLDATASIZE PUSH1 0x3 NOT ADD SLT PUSH2 0x3B2 JUMPI PUSH1 0x4 CALLDATALOAD PUSH1 0x0 SLOAD DUP2 LT ISZERO PUSH2 0x3B2 JUMPI PUSH1 0x1 PUSH1 0x1 PUSH1 0xA0 SHL SUB PUSH2 0x8C9 PUSH1 0x20 SWAP3 PUSH2 0x8D9 JUMP JUMPDEST SWAP1 SLOAD SWAP1 PUSH1 0x3 SHL SHR AND PUSH1 0x40 MLOAD SWAP1 DUP2 MSTORE RETURN JUMPDEST PUSH1 0x0 SLOAD DUP2 LT ISZERO PUSH2 0x8F3 JUMPI PUSH1 0x0 DUP1 MSTORE PUSH1 0x20 PUSH1 0x0 KECCAK256 ADD SWAP1 PUSH1 0x0 SWAP1 JUMP JUMPDEST PUSH4 0x4E487B71 PUSH1 0xE0 SHL PUSH1 0x0 MSTORE PUSH1 0x32 PUSH1 0x4 MSTORE PUSH1 0x24 PUSH1 0x0 REVERT JUMPDEST PUSH1 0x4 SLOAD DUP2 LT ISZERO PUSH2 0x8F3 JUMPI PUSH1 0x4 PUSH1 0x0 MSTORE PUSH1 0x7 PUSH1 0x20 PUSH1 0x0 KECCAK256 SWAP2 MUL ADD SWAP1 PUSH1 0x0 SWAP1 JUMP JUMPDEST SWAP1 PUSH1 0x1 DUP3 DUP2 SHR SWAP3 AND DUP1 ISZERO PUSH2 0x958 JUMPI JUMPDEST PUSH1 0x20 DUP4 LT EQ PUSH2 0x942 JUMPI JUMP JUMPDEST PUSH4 0x4E487B71 PUSH1 0xE0 SHL PUSH1 0x0 MSTORE PUSH1 0x22 PUSH1 0x4 MSTORE PUSH1 0x24 PUSH1 0x0 REVERT JUMPDEST SWAP2 PUSH1 0x7F AND SWAP2 PUSH2 0x937 JUMP JUMPDEST SWAP1 PUSH1 0x1F DUP1 NOT SWAP2 ADD AND DUP2 ADD SWAP1 DUP2 LT PUSH8 0xFFFFFFFFFFFFFFFF DUP3 GT OR PUSH2 0x2FD JUMPI PUSH1 0x40 MSTORE JUMP JUMPDEST PUSH1 0x4 CALLDATALOAD SWAP1 PUSH1 0x1 PUSH1 0x1 PUSH1 0xA0 SHL SUB DUP3 AND DUP3 SUB PUSH2 0x3B2 JUMPI JUMP JUMPDEST PUSH8 0xFFFFFFFFFFFFFFFF DUP2 GT PUSH2 0x2FD JUMPI PUSH1 0x1F ADD PUSH1 0x1F NOT AND PUSH1 0x20 ADD SWAP1 JUMP JUMPDEST ISZERO PUSH2 0x9BD JUMPI JUMP JUMPDEST PUSH1 0x64 PUSH1 0x40 MLOAD PUSH3 0x461BCD PUSH1 0xE5 SHL DUP2 MSTORE PUSH1 0x20 PUSH1 0x4 DUP3 ADD MSTORE PUSH1 0xC PUSH1 0x24 DUP3 ADD MSTORE PUSH32 0x4E6F742061207369676E65720000000000000000000000000000000000000000 PUSH1 0x44 DUP3 ADD MSTORE REVERT INVALID LOG2 PUSH5 0x6970667358 0x22 SLT KECCAK256 PUSH10 0xCDAD132F57851F9E66E5 PUSH19 0xAD375051F940F6FF17E93EA3FF9CF292CD484 ISZERO PUSH5 0x736F6C6343 STOP ADDMOD SHR STOP CALLER "},"methodIdentifiers":{"approveTransaction(uint256)":"242232d1","maxDailyWithdrawal()":"b87d1bc5","signers(uint256)":"2079fb9a","submitTransaction(address,uint256,bytes)":"c6427474","threshold()":"42cde4e8","transactions(uint256)":"9ace38c2","updateMaxDailyWithdrawal(uint256)":"ba476289","whitelist(address)":"9b19251a"}}}}}