{"contracts/CathedralSPHINCSVerifier.sol":{"CathedralSPHINCSVerifier":{"abi":[{"inputs":[{"internalType":"bytes","name":"message","type":"bytes"},{"internalType":"bytes","name":"signature","type":"bytes"},{"internalType":"bytes32","name":"publicKeyRoot","type":"bytes32"}],"name":"verifySPHINCS","outputs":[{"internalType":"bool","name":"","type":"bool"}],"stateMutability":"pure","type":"function"}],"evm":{"bytecode":{"linkReferences":{},"object":"60808060405234601557610a44908161001b8239f35b600080fdfe608080604052600436101561001357600080fd5b60003560e01c63e8756e661461002857600080fd5b346108575760603660031901126108575760043567ffffffffffffffff811161085757366023820112156108575780600401359067ffffffffffffffff821161085c5761007f601f8301601f191660200184610872565b8183523660248383010111610857578160009260246020930183860137830101526024359067ffffffffffffffff821161085757366023830112156108575781600401359167ffffffffffffffff831161085757602481019236602482840101116108575760443592610f7082036107ed5760405160208101916001600160801b031987351683528560408301528181519160005b8381106107d55750508061013b92606092016000838201520301601f198101835282610872565b51902061089094610fff60e083901c811694608084901c909116926001600160801b03191660008589116107d25750604051919061012061017c8185610872565b60088452601f1901366020850137610200916102206000805b60088110610684575050505050506001600160801b0319906040516101d0816101c26020820180956108f1565b03601f198101835282610872565b51902016866010116103d9576102b0808801958689116103d9576101f6878a88876108af565b509160009188610560946040519661020e8789610872565b86368937604051602081019182528460408201528a60608201528660808201526061815261023d608182610872565b51902085610100815b602b83106105d7575050505061058096604051916102648984610872565b602b8352601f198901968736602086013780815b602b811061054b5750505050506001600160801b0319906040516102a4816101c26020820180956108f1565b519020169b116103d95760c089019a8b8a116103d9578b916102d2916102cc848d8d8c6108af565b91610930565b98116103d957890196878a116103d95790879392916102f3858c8a896108af565b5091600091604051946103068187610872565b3686376040516020810191825289604082015283606082015283608082015260618152610334608182610872565b51902082610100815b602b831061049657505050506103566040519586610872565b602b855236602086013780815b602b81106103ef5750505050506001600160801b03199060405161038f816101c26020820180956108f1565b5190201696116103d95760c08401918285116103d9576020966102cc60c094876103c2976103bc966108af565b92610894565b506001600160801b03198060405193169116148152f35b634e487b7160e01b600052601160045260246000fd5b909192939495506001600160801b031982850135169160108101809111610482579161042760ff610420848961091f565b51166108a1565b84905b80821061044f5750509060019161044182896108c7565b520190899594939291610363565b90916001600160801b03196001916040516020810191825260208152610476604082610872565b5190201692019061042a565b602484634e487b7160e01b81526011600452fd5b90919293949596979850600382106104f7575b600784821c166104b9848a61091f565b52600381018091116104e3579060021981019081116104e3578c989796959493926001019161033d565b602486634e487b7160e01b81526011600452fd5b505090604051602081019182527fff000000000000000000000000000000000000000000000000000000000000008360f81b1660408201526021815261053e604182610872565b51902090610100846104a9565b909192939495506001600160801b031982850135169160108101809111610482579161057c60ff610420848961091f565b84905b8082106105a45750509060019161059682896108c7565b5201908e9594939291610278565b90916001600160801b031960019160405160208101918252602081526105cb604082610872565b5190201692019061057f565b90919293945060038210610630575b600784821c166105f6848c61091f565b526003810180911161061c5790600219810190811161061c578d94939260010191610246565b602488634e487b7160e01b81526011600452fd5b505090604051602081019182527fff000000000000000000000000000000000000000000000000000000000000008360f81b16604082015260218152610677604182610872565b51902090610100866105e6565b61ffff60405160208101908782528b60408201528d6060820152836080820152608081526106b360a082610872565b51902016916001600160801b0319603482870101351690601081018091116103d9579290604051906106e58683610872565b601082528836602084013760005b6010811061079b5750916000915b60108310610721575050509060019161071a828a6108c7565b5201610195565b9091926001600160801b031960019161073a86856108c7565b5185871c8416610771576040519060208201928352604082015260408152610763606082610872565b51902016935b019190610701565b906040519060208201928352604082015260408152610791606082610872565b5190201693610769565b946001600160801b03196034828a969596010135166107ba87866108c7565b52601081018091116103d957949192916001016106f3565b80fd5b60208282018101516060878401015285935001610114565b608460405162461bcd60e51b815260206004820152603260248201527f43617468656472616c535048494e435356657269666965723a20696e76616c6960448201527f64207369676e6174757265206c656e67746800000000000000000000000000006064820152fd5b600080fd5b634e487b7160e01b600052604160045260246000fd5b90601f8019910116810190811067ffffffffffffffff82111761085c57604052565b919082018092116103d957565b60070390600782116103d957565b90939293848311610857578411610857578101920390565b80518210156108db5760209160051b010190565b634e487b7160e01b600052603260045260246000fd5b805160209091019060005b8181106109095750505090565b82518452602093840193909201916001016108fc565b90602b8110156108db5760051b0190565b909160bf19016109ca5791906000915b600c831061094e5750505090565b9091926001600160801b0319600191818660041b860135168385881c16156000146109a0576040519060208201928352604082015260408152610992606082610872565b51902016935b019190610940565b9060405190602082019283526040820152604081526109c0606082610872565b5190201693610998565b606460405162461bcd60e51b815260206004820152601f60248201527f496e76616c6964204d65726b6c6520617574682070617468206c656e677468006044820152fdfea2646970667358221220c422ec7e4a8a99b83d876100b012b979931cbabd697e8e9caf4811eb425102cc64736f6c634300081c0033","opcodes":"PUSH1 0x80 DUP1 PUSH1 0x40 MSTORE CALLVALUE PUSH1 0x15 JUMPI PUSH2 0xA44 SWAP1 DUP2 PUSH2 0x1B DUP3 CODECOPY RETURN JUMPDEST PUSH1 0x0 DUP1 REVERT INVALID PUSH1 0x80 DUP1 PUSH1 0x40 MSTORE PUSH1 0x4 CALLDATASIZE LT ISZERO PUSH2 0x13 JUMPI PUSH1 0x0 DUP1 REVERT JUMPDEST PUSH1 0x0 CALLDATALOAD PUSH1 0xE0 SHR PUSH4 0xE8756E66 EQ PUSH2 0x28 JUMPI PUSH1 0x0 DUP1 REVERT JUMPDEST CALLVALUE PUSH2 0x857 JUMPI PUSH1 0x60 CALLDATASIZE PUSH1 0x3 NOT ADD SLT PUSH2 0x857 JUMPI PUSH1 0x4 CALLDATALOAD PUSH8 0xFFFFFFFFFFFFFFFF DUP2 GT PUSH2 0x857 JUMPI CALLDATASIZE PUSH1 0x23 DUP3 ADD SLT ISZERO PUSH2 0x857 JUMPI DUP1 PUSH1 0x4 ADD CALLDATALOAD SWAP1 PUSH8 0xFFFFFFFFFFFFFFFF DUP3 GT PUSH2 0x85C JUMPI PUSH2 0x7F PUSH1 0x1F DUP4 ADD PUSH1 0x1F NOT AND PUSH1 0x20 ADD DUP5 PUSH2 0x872 JUMP JUMPDEST DUP2 DUP4 MSTORE CALLDATASIZE PUSH1 0x24 DUP4 DUP4 ADD ADD GT PUSH2 0x857 JUMPI DUP2 PUSH1 0x0 SWAP3 PUSH1 0x24 PUSH1 0x20 SWAP4 ADD DUP4 DUP7 ADD CALLDATACOPY DUP4 ADD ADD MSTORE PUSH1 0x24 CALLDATALOAD SWAP1 PUSH8 0xFFFFFFFFFFFFFFFF DUP3 GT PUSH2 0x857 JUMPI CALLDATASIZE PUSH1 0x23 DUP4 ADD SLT ISZERO PUSH2 0x857 JUMPI DUP2 PUSH1 0x4 ADD CALLDATALOAD SWAP2 PUSH8 0xFFFFFFFFFFFFFFFF DUP4 GT PUSH2 0x857 JUMPI PUSH1 0x24 DUP2 ADD SWAP3 CALLDATASIZE PUSH1 0x24 DUP3 DUP5 ADD ADD GT PUSH2 0x857 JUMPI PUSH1 0x44 CALLDATALOAD SWAP3 PUSH2 0xF70 DUP3 SUB PUSH2 0x7ED JUMPI PUSH1 0x40 MLOAD PUSH1 0x20 DUP2 ADD SWAP2 PUSH1 0x1 PUSH1 0x1 PUSH1 0x80 SHL SUB NOT DUP8 CALLDATALOAD AND DUP4 MSTORE DUP6 PUSH1 0x40 DUP4 ADD MSTORE DUP2 DUP2 MLOAD SWAP2 PUSH1 0x0 JUMPDEST DUP4 DUP2 LT PUSH2 0x7D5 JUMPI POP POP DUP1 PUSH2 0x13B SWAP3 PUSH1 0x60 SWAP3 ADD PUSH1 0x0 DUP4 DUP3 ADD MSTORE SUB ADD PUSH1 0x1F NOT DUP2 ADD DUP4 MSTORE DUP3 PUSH2 0x872 JUMP JUMPDEST MLOAD SWAP1 KECCAK256 PUSH2 0x890 SWAP5 PUSH2 0xFFF PUSH1 0xE0 DUP4 SWAP1 SHR DUP2 AND SWAP5 PUSH1 0x80 DUP5 SWAP1 SHR SWAP1 SWAP2 AND SWAP3 PUSH1 0x1 PUSH1 0x1 PUSH1 0x80 SHL SUB NOT AND PUSH1 0x0 DUP6 DUP10 GT PUSH2 0x7D2 JUMPI POP PUSH1 0x40 MLOAD SWAP2 SWAP1 PUSH2 0x120 PUSH2 0x17C DUP2 DUP6 PUSH2 0x872 JUMP JUMPDEST PUSH1 0x8 DUP5 MSTORE PUSH1 0x1F NOT ADD CALLDATASIZE PUSH1 0x20 DUP6 ADD CALLDATACOPY PUSH2 0x200 SWAP2 PUSH2 0x220 PUSH1 0x0 DUP1 JUMPDEST PUSH1 0x8 DUP2 LT PUSH2 0x684 JUMPI POP POP POP POP POP POP PUSH1 0x1 PUSH1 0x1 PUSH1 0x80 SHL SUB NOT SWAP1 PUSH1 0x40 MLOAD PUSH2 0x1D0 DUP2 PUSH2 0x1C2 PUSH1 0x20 DUP3 ADD DUP1 SWAP6 PUSH2 0x8F1 JUMP JUMPDEST SUB PUSH1 0x1F NOT DUP2 ADD DUP4 MSTORE DUP3 PUSH2 0x872 JUMP JUMPDEST MLOAD SWAP1 KECCAK256 AND DUP7 PUSH1 0x10 GT PUSH2 0x3D9 JUMPI PUSH2 0x2B0 DUP1 DUP9 ADD SWAP6 DUP7 DUP10 GT PUSH2 0x3D9 JUMPI PUSH2 0x1F6 DUP8 DUP11 DUP9 DUP8 PUSH2 0x8AF JUMP JUMPDEST POP SWAP2 PUSH1 0x0 SWAP2 DUP9 PUSH2 0x560 SWAP5 PUSH1 0x40 MLOAD SWAP7 PUSH2 0x20E DUP8 DUP10 PUSH2 0x872 JUMP JUMPDEST DUP7 CALLDATASIZE DUP10 CALLDATACOPY PUSH1 0x40 MLOAD PUSH1 0x20 DUP2 ADD SWAP2 DUP3 MSTORE DUP5 PUSH1 0x40 DUP3 ADD MSTORE DUP11 PUSH1 0x60 DUP3 ADD MSTORE DUP7 PUSH1 0x80 DUP3 ADD MSTORE PUSH1 0x61 DUP2 MSTORE PUSH2 0x23D PUSH1 0x81 DUP3 PUSH2 0x872 JUMP JUMPDEST MLOAD SWAP1 KECCAK256 DUP6 PUSH2 0x100 DUP2 JUMPDEST PUSH1 0x2B DUP4 LT PUSH2 0x5D7 JUMPI POP POP POP POP PUSH2 0x580 SWAP7 PUSH1 0x40 MLOAD SWAP2 PUSH2 0x264 DUP10 DUP5 PUSH2 0x872 JUMP JUMPDEST PUSH1 0x2B DUP4 MSTORE PUSH1 0x1F NOT DUP10 ADD SWAP7 DUP8 CALLDATASIZE PUSH1 0x20 DUP7 ADD CALLDATACOPY DUP1 DUP2 JUMPDEST PUSH1 0x2B DUP2 LT PUSH2 0x54B JUMPI POP POP POP POP POP PUSH1 0x1 PUSH1 0x1 PUSH1 0x80 SHL SUB NOT SWAP1 PUSH1 0x40 MLOAD PUSH2 0x2A4 DUP2 PUSH2 0x1C2 PUSH1 0x20 DUP3 ADD DUP1 SWAP6 PUSH2 0x8F1 JUMP JUMPDEST MLOAD SWAP1 KECCAK256 AND SWAP12 GT PUSH2 0x3D9 JUMPI PUSH1 0xC0 DUP10 ADD SWAP11 DUP12 DUP11 GT PUSH2 0x3D9 JUMPI DUP12 SWAP2 PUSH2 0x2D2 SWAP2 PUSH2 0x2CC DUP5 DUP14 DUP14 DUP13 PUSH2 0x8AF JUMP JUMPDEST SWAP2 PUSH2 0x930 JUMP JUMPDEST SWAP9 GT PUSH2 0x3D9 JUMPI DUP10 ADD SWAP7 DUP8 DUP11 GT PUSH2 0x3D9 JUMPI SWAP1 DUP8 SWAP4 SWAP3 SWAP2 PUSH2 0x2F3 DUP6 DUP13 DUP11 DUP10 PUSH2 0x8AF JUMP JUMPDEST POP SWAP2 PUSH1 0x0 SWAP2 PUSH1 0x40 MLOAD SWAP5 PUSH2 0x306 DUP2 DUP8 PUSH2 0x872 JUMP JUMPDEST CALLDATASIZE DUP7 CALLDATACOPY PUSH1 0x40 MLOAD PUSH1 0x20 DUP2 ADD SWAP2 DUP3 MSTORE DUP10 PUSH1 0x40 DUP3 ADD MSTORE DUP4 PUSH1 0x60 DUP3 ADD MSTORE DUP4 PUSH1 0x80 DUP3 ADD MSTORE PUSH1 0x61 DUP2 MSTORE PUSH2 0x334 PUSH1 0x81 DUP3 PUSH2 0x872 JUMP JUMPDEST MLOAD SWAP1 KECCAK256 DUP3 PUSH2 0x100 DUP2 JUMPDEST PUSH1 0x2B DUP4 LT PUSH2 0x496 JUMPI POP POP POP POP PUSH2 0x356 PUSH1 0x40 MLOAD SWAP6 DUP7 PUSH2 0x872 JUMP JUMPDEST PUSH1 0x2B DUP6 MSTORE CALLDATASIZE PUSH1 0x20 DUP7 ADD CALLDATACOPY DUP1 DUP2 JUMPDEST PUSH1 0x2B DUP2 LT PUSH2 0x3EF JUMPI POP POP POP POP POP PUSH1 0x1 PUSH1 0x1 PUSH1 0x80 SHL SUB NOT SWAP1 PUSH1 0x40 MLOAD PUSH2 0x38F DUP2 PUSH2 0x1C2 PUSH1 0x20 DUP3 ADD DUP1 SWAP6 PUSH2 0x8F1 JUMP JUMPDEST MLOAD SWAP1 KECCAK256 AND SWAP7 GT PUSH2 0x3D9 JUMPI PUSH1 0xC0 DUP5 ADD SWAP2 DUP3 DUP6 GT PUSH2 0x3D9 JUMPI PUSH1 0x20 SWAP7 PUSH2 0x2CC PUSH1 0xC0 SWAP5 DUP8 PUSH2 0x3C2 SWAP8 PUSH2 0x3BC SWAP7 PUSH2 0x8AF JUMP JUMPDEST SWAP3 PUSH2 0x894 JUMP JUMPDEST POP PUSH1 0x1 PUSH1 0x1 PUSH1 0x80 SHL SUB NOT DUP1 PUSH1 0x40 MLOAD SWAP4 AND SWAP2 AND EQ DUP2 MSTORE RETURN JUMPDEST PUSH4 0x4E487B71 PUSH1 0xE0 SHL PUSH1 0x0 MSTORE PUSH1 0x11 PUSH1 0x4 MSTORE PUSH1 0x24 PUSH1 0x0 REVERT JUMPDEST SWAP1 SWAP2 SWAP3 SWAP4 SWAP5 SWAP6 POP PUSH1 0x1 PUSH1 0x1 PUSH1 0x80 SHL SUB NOT DUP3 DUP6 ADD CALLDATALOAD AND SWAP2 PUSH1 0x10 DUP2 ADD DUP1 SWAP2 GT PUSH2 0x482 JUMPI SWAP2 PUSH2 0x427 PUSH1 0xFF PUSH2 0x420 DUP5 DUP10 PUSH2 0x91F JUMP JUMPDEST MLOAD AND PUSH2 0x8A1 JUMP JUMPDEST DUP5 SWAP1 JUMPDEST DUP1 DUP3 LT PUSH2 0x44F JUMPI POP POP SWAP1 PUSH1 0x1 SWAP2 PUSH2 0x441 DUP3 DUP10 PUSH2 0x8C7 JUMP JUMPDEST MSTORE ADD SWAP1 DUP10 SWAP6 SWAP5 SWAP4 SWAP3 SWAP2 PUSH2 0x363 JUMP JUMPDEST SWAP1 SWAP2 PUSH1 0x1 PUSH1 0x1 PUSH1 0x80 SHL SUB NOT PUSH1 0x1 SWAP2 PUSH1 0x40 MLOAD PUSH1 0x20 DUP2 ADD SWAP2 DUP3 MSTORE PUSH1 0x20 DUP2 MSTORE PUSH2 0x476 PUSH1 0x40 DUP3 PUSH2 0x872 JUMP JUMPDEST MLOAD SWAP1 KECCAK256 AND SWAP3 ADD SWAP1 PUSH2 0x42A JUMP JUMPDEST PUSH1 0x24 DUP5 PUSH4 0x4E487B71 PUSH1 0xE0 SHL DUP2 MSTORE PUSH1 0x11 PUSH1 0x4 MSTORE REVERT JUMPDEST SWAP1 SWAP2 SWAP3 SWAP4 SWAP5 SWAP6 SWAP7 SWAP8 SWAP9 POP PUSH1 0x3 DUP3 LT PUSH2 0x4F7 JUMPI JUMPDEST PUSH1 0x7 DUP5 DUP3 SHR AND PUSH2 0x4B9 DUP5 DUP11 PUSH2 0x91F JUMP JUMPDEST MSTORE PUSH1 0x3 DUP2 ADD DUP1 SWAP2 GT PUSH2 0x4E3 JUMPI SWAP1 PUSH1 0x2 NOT DUP2 ADD SWAP1 DUP2 GT PUSH2 0x4E3 JUMPI DUP13 SWAP9 SWAP8 SWAP7 SWAP6 SWAP5 SWAP4 SWAP3 PUSH1 0x1 ADD SWAP2 PUSH2 0x33D JUMP JUMPDEST PUSH1 0x24 DUP7 PUSH4 0x4E487B71 PUSH1 0xE0 SHL DUP2 MSTORE PUSH1 0x11 PUSH1 0x4 MSTORE REVERT JUMPDEST POP POP SWAP1 PUSH1 0x40 MLOAD PUSH1 0x20 DUP2 ADD SWAP2 DUP3 MSTORE PUSH32 0xFF00000000000000000000000000000000000000000000000000000000000000 DUP4 PUSH1 0xF8 SHL AND PUSH1 0x40 DUP3 ADD MSTORE PUSH1 0x21 DUP2 MSTORE PUSH2 0x53E PUSH1 0x41 DUP3 PUSH2 0x872 JUMP JUMPDEST MLOAD SWAP1 KECCAK256 SWAP1 PUSH2 0x100 DUP5 PUSH2 0x4A9 JUMP JUMPDEST SWAP1 SWAP2 SWAP3 SWAP4 SWAP5 SWAP6 POP PUSH1 0x1 PUSH1 0x1 PUSH1 0x80 SHL SUB NOT DUP3 DUP6 ADD CALLDATALOAD AND SWAP2 PUSH1 0x10 DUP2 ADD DUP1 SWAP2 GT PUSH2 0x482 JUMPI SWAP2 PUSH2 0x57C PUSH1 0xFF PUSH2 0x420 DUP5 DUP10 PUSH2 0x91F JUMP JUMPDEST DUP5 SWAP1 JUMPDEST DUP1 DUP3 LT PUSH2 0x5A4 JUMPI POP POP SWAP1 PUSH1 0x1 SWAP2 PUSH2 0x596 DUP3 DUP10 PUSH2 0x8C7 JUMP JUMPDEST MSTORE ADD SWAP1 DUP15 SWAP6 SWAP5 SWAP4 SWAP3 SWAP2 PUSH2 0x278 JUMP JUMPDEST SWAP1 SWAP2 PUSH1 0x1 PUSH1 0x1 PUSH1 0x80 SHL SUB NOT PUSH1 0x1 SWAP2 PUSH1 0x40 MLOAD PUSH1 0x20 DUP2 ADD SWAP2 DUP3 MSTORE PUSH1 0x20 DUP2 MSTORE PUSH2 0x5CB PUSH1 0x40 DUP3 PUSH2 0x872 JUMP JUMPDEST MLOAD SWAP1 KECCAK256 AND SWAP3 ADD SWAP1 PUSH2 0x57F JUMP JUMPDEST SWAP1 SWAP2 SWAP3 SWAP4 SWAP5 POP PUSH1 0x3 DUP3 LT PUSH2 0x630 JUMPI JUMPDEST PUSH1 0x7 DUP5 DUP3 SHR AND PUSH2 0x5F6 DUP5 DUP13 PUSH2 0x91F JUMP JUMPDEST MSTORE PUSH1 0x3 DUP2 ADD DUP1 SWAP2 GT PUSH2 0x61C JUMPI SWAP1 PUSH1 0x2 NOT DUP2 ADD SWAP1 DUP2 GT PUSH2 0x61C JUMPI DUP14 SWAP5 SWAP4 SWAP3 PUSH1 0x1 ADD SWAP2 PUSH2 0x246 JUMP JUMPDEST PUSH1 0x24 DUP9 PUSH4 0x4E487B71 PUSH1 0xE0 SHL DUP2 MSTORE PUSH1 0x11 PUSH1 0x4 MSTORE REVERT JUMPDEST POP POP SWAP1 PUSH1 0x40 MLOAD PUSH1 0x20 DUP2 ADD SWAP2 DUP3 MSTORE PUSH32 0xFF00000000000000000000000000000000000000000000000000000000000000 DUP4 PUSH1 0xF8 SHL AND PUSH1 0x40 DUP3 ADD MSTORE PUSH1 0x21 DUP2 MSTORE PUSH2 0x677 PUSH1 0x41 DUP3 PUSH2 0x872 JUMP JUMPDEST MLOAD SWAP1 KECCAK256 SWAP1 PUSH2 0x100 DUP7 PUSH2 0x5E6 JUMP JUMPDEST PUSH2 0xFFFF PUSH1 0x40 MLOAD PUSH1 0x20 DUP2 ADD SWAP1 DUP8 DUP3 MSTORE DUP12 PUSH1 0x40 DUP3 ADD MSTORE DUP14 PUSH1 0x60 DUP3 ADD MSTORE DUP4 PUSH1 0x80 DUP3 ADD MSTORE PUSH1 0x80 DUP2 MSTORE PUSH2 0x6B3 PUSH1 0xA0 DUP3 PUSH2 0x872 JUMP JUMPDEST MLOAD SWAP1 KECCAK256 AND SWAP2 PUSH1 0x1 PUSH1 0x1 PUSH1 0x80 SHL SUB NOT PUSH1 0x34 DUP3 DUP8 ADD ADD CALLDATALOAD AND SWAP1 PUSH1 0x10 DUP2 ADD DUP1 SWAP2 GT PUSH2 0x3D9 JUMPI SWAP3 SWAP1 PUSH1 0x40 MLOAD SWAP1 PUSH2 0x6E5 DUP7 DUP4 PUSH2 0x872 JUMP JUMPDEST PUSH1 0x10 DUP3 MSTORE DUP9 CALLDATASIZE PUSH1 0x20 DUP5 ADD CALLDATACOPY PUSH1 0x0 JUMPDEST PUSH1 0x10 DUP2 LT PUSH2 0x79B JUMPI POP SWAP2 PUSH1 0x0 SWAP2 JUMPDEST PUSH1 0x10 DUP4 LT PUSH2 0x721 JUMPI POP POP POP SWAP1 PUSH1 0x1 SWAP2 PUSH2 0x71A DUP3 DUP11 PUSH2 0x8C7 JUMP JUMPDEST MSTORE ADD PUSH2 0x195 JUMP JUMPDEST SWAP1 SWAP2 SWAP3 PUSH1 0x1 PUSH1 0x1 PUSH1 0x80 SHL SUB NOT PUSH1 0x1 SWAP2 PUSH2 0x73A DUP7 DUP6 PUSH2 0x8C7 JUMP JUMPDEST MLOAD DUP6 DUP8 SHR DUP5 AND PUSH2 0x771 JUMPI PUSH1 0x40 MLOAD SWAP1 PUSH1 0x20 DUP3 ADD SWAP3 DUP4 MSTORE PUSH1 0x40 DUP3 ADD MSTORE PUSH1 0x40 DUP2 MSTORE PUSH2 0x763 PUSH1 0x60 DUP3 PUSH2 0x872 JUMP JUMPDEST MLOAD SWAP1 KECCAK256 AND SWAP4 JUMPDEST ADD SWAP2 SWAP1 PUSH2 0x701 JUMP JUMPDEST SWAP1 PUSH1 0x40 MLOAD SWAP1 PUSH1 0x20 DUP3 ADD SWAP3 DUP4 MSTORE PUSH1 0x40 DUP3 ADD MSTORE PUSH1 0x40 DUP2 MSTORE PUSH2 0x791 PUSH1 0x60 DUP3 PUSH2 0x872 JUMP JUMPDEST MLOAD SWAP1 KECCAK256 AND SWAP4 PUSH2 0x769 JUMP JUMPDEST SWAP5 PUSH1 0x1 PUSH1 0x1 PUSH1 0x80 SHL SUB NOT PUSH1 0x34 DUP3 DUP11 SWAP7 SWAP6 SWAP7 ADD ADD CALLDATALOAD AND PUSH2 0x7BA DUP8 DUP7 PUSH2 0x8C7 JUMP JUMPDEST MSTORE PUSH1 0x10 DUP2 ADD DUP1 SWAP2 GT PUSH2 0x3D9 JUMPI SWAP5 SWAP2 SWAP3 SWAP2 PUSH1 0x1 ADD PUSH2 0x6F3 JUMP JUMPDEST DUP1 REVERT JUMPDEST PUSH1 0x20 DUP3 DUP3 ADD DUP2 ADD MLOAD PUSH1 0x60 DUP8 DUP5 ADD ADD MSTORE DUP6 SWAP4 POP ADD PUSH2 0x114 JUMP JUMPDEST PUSH1 0x84 PUSH1 0x40 MLOAD PUSH3 0x461BCD PUSH1 0xE5 SHL DUP2 MSTORE PUSH1 0x20 PUSH1 0x4 DUP3 ADD MSTORE PUSH1 0x32 PUSH1 0x24 DUP3 ADD MSTORE PUSH32 0x43617468656472616C535048494E435356657269666965723A20696E76616C69 PUSH1 0x44 DUP3 ADD MSTORE PUSH32 0x64207369676E6174757265206C656E6774680000000000000000000000000000 PUSH1 0x64 DUP3 ADD MSTORE REVERT JUMPDEST PUSH1 0x0 DUP1 REVERT JUMPDEST PUSH4 0x4E487B71 PUSH1 0xE0 SHL PUSH1 0x0 MSTORE PUSH1 0x41 PUSH1 0x4 MSTORE PUSH1 0x24 PUSH1 0x0 REVERT JUMPDEST SWAP1 PUSH1 0x1F DUP1 NOT SWAP2 ADD AND DUP2 ADD SWAP1 DUP2 LT PUSH8 0xFFFFFFFFFFFFFFFF DUP3 GT OR PUSH2 0x85C JUMPI PUSH1 0x40 MSTORE JUMP JUMPDEST SWAP2 SWAP1 DUP3 ADD DUP1 SWAP3 GT PUSH2 0x3D9 JUMPI JUMP JUMPDEST PUSH1 0x7 SUB SWAP1 PUSH1 0x7 DUP3 GT PUSH2 0x3D9 JUMPI JUMP JUMPDEST SWAP1 SWAP4 SWAP3 SWAP4 DUP5 DUP4 GT PUSH2 0x857 JUMPI DUP5 GT PUSH2 0x857 JUMPI DUP2 ADD SWAP3 SUB SWAP1 JUMP JUMPDEST DUP1 MLOAD DUP3 LT ISZERO PUSH2 0x8DB JUMPI PUSH1 0x20 SWAP2 PUSH1 0x5 SHL ADD ADD SWAP1 JUMP JUMPDEST PUSH4 0x4E487B71 PUSH1 0xE0 SHL PUSH1 0x0 MSTORE PUSH1 0x32 PUSH1 0x4 MSTORE PUSH1 0x24 PUSH1 0x0 REVERT JUMPDEST DUP1 MLOAD PUSH1 0x20 SWAP1 SWAP2 ADD SWAP1 PUSH1 0x0 JUMPDEST DUP2 DUP2 LT PUSH2 0x909 JUMPI POP POP POP SWAP1 JUMP JUMPDEST DUP3 MLOAD DUP5 MSTORE PUSH1 0x20 SWAP4 DUP5 ADD SWAP4 SWAP1 SWAP3 ADD SWAP2 PUSH1 0x1 ADD PUSH2 0x8FC JUMP JUMPDEST SWAP1 PUSH1 0x2B DUP2 LT ISZERO PUSH2 0x8DB JUMPI PUSH1 0x5 SHL ADD SWAP1 JUMP JUMPDEST SWAP1 SWAP2 PUSH1 0xBF NOT ADD PUSH2 0x9CA JUMPI SWAP2 SWAP1 PUSH1 0x0 SWAP2 JUMPDEST PUSH1 0xC DUP4 LT PUSH2 0x94E JUMPI POP POP POP SWAP1 JUMP JUMPDEST SWAP1 SWAP2 SWAP3 PUSH1 0x1 PUSH1 0x1 PUSH1 0x80 SHL SUB NOT PUSH1 0x1 SWAP2 DUP2 DUP7 PUSH1 0x4 SHL DUP7 ADD CALLDATALOAD AND DUP4 DUP6 DUP9 SHR AND ISZERO PUSH1 0x0 EQ PUSH2 0x9A0 JUMPI PUSH1 0x40 MLOAD SWAP1 PUSH1 0x20 DUP3 ADD SWAP3 DUP4 MSTORE PUSH1 0x40 DUP3 ADD MSTORE PUSH1 0x40 DUP2 MSTORE PUSH2 0x992 PUSH1 0x60 DUP3 PUSH2 0x872 JUMP JUMPDEST MLOAD SWAP1 KECCAK256 AND SWAP4 JUMPDEST ADD SWAP2 SWAP1 PUSH2 0x940 JUMP JUMPDEST SWAP1 PUSH1 0x40 MLOAD SWAP1 PUSH1 0x20 DUP3 ADD SWAP3 DUP4 MSTORE PUSH1 0x40 DUP3 ADD MSTORE PUSH1 0x40 DUP2 MSTORE PUSH2 0x9C0 PUSH1 0x60 DUP3 PUSH2 0x872 JUMP JUMPDEST MLOAD SWAP1 KECCAK256 AND SWAP4 PUSH2 0x998 JUMP JUMPDEST PUSH1 0x64 PUSH1 0x40 MLOAD PUSH3 0x461BCD PUSH1 0xE5 SHL DUP2 MSTORE PUSH1 0x20 PUSH1 0x4 DUP3 ADD MSTORE PUSH1 0x1F PUSH1 0x24 DUP3 ADD MSTORE PUSH32 0x496E76616C6964204D65726B6C6520617574682070617468206C656E67746800 PUSH1 0x44 DUP3 ADD MSTORE REVERT INVALID LOG2 PUSH5 0x6970667358 0x22 SLT KECCAK256 0xC4 0x22 0xEC PUSH31 0x4A8A99B83D876100B012B979931CBABD697E8E9CAF4811EB425102CC64736F PUSH13 0x634300081C0033000000000000 "},"methodIdentifiers":{"verifySPHINCS(bytes,bytes,bytes32)":"e8756e66"}}}}}