{
  "_format": "hh-sol-artifact-1",
  "contractName": "PNKTheosisOracle",
  "sourceName": "contracts/PNKTheosisOracle.sol",
  "abi": [
    {
      "inputs": [],
      "stateMutability": "nonpayable",
      "type": "constructor"
    },
    {
      "anonymous": false,
      "inputs": [
        {
          "indexed": true,
          "internalType": "address",
          "name": "juror",
          "type": "address"
        },
        {
          "indexed": false,
          "internalType": "uint256",
          "name": "theosisScore",
          "type": "uint256"
        }
      ],
      "name": "TheosisUpdated",
      "type": "event"
    },
    {
      "inputs": [
        {
          "internalType": "address",
          "name": "juror",
          "type": "address"
        }
      ],
      "name": "getJurorTheosis",
      "outputs": [
        {
          "internalType": "uint256",
          "name": "",
          "type": "uint256"
        }
      ],
      "stateMutability": "view",
      "type": "function"
    },
    {
      "inputs": [
        {
          "internalType": "address",
          "name": "",
          "type": "address"
        }
      ],
      "name": "jurorTheosis",
      "outputs": [
        {
          "internalType": "uint256",
          "name": "",
          "type": "uint256"
        }
      ],
      "stateMutability": "view",
      "type": "function"
    },
    {
      "inputs": [],
      "name": "owner",
      "outputs": [
        {
          "internalType": "address",
          "name": "",
          "type": "address"
        }
      ],
      "stateMutability": "view",
      "type": "function"
    },
    {
      "inputs": [
        {
          "internalType": "address",
          "name": "juror",
          "type": "address"
        },
        {
          "internalType": "uint256",
          "name": "theosisScore",
          "type": "uint256"
        }
      ],
      "name": "updateTheosis",
      "outputs": [],
      "stateMutability": "nonpayable",
      "type": "function"
    }
  ],
  "bytecode": "0x60808060405234602757600180546001600160a01b031916331790556101cd908161002d8239f35b600080fdfe608080604052600436101561001357600080fd5b60003560e01c9081638da5cb5b1461015d57508063c13796191461004b578063dede70951461008a5763e0cf80cf1461004b57600080fd5b34610085576020366003190112610085576001600160a01b0361006c610181565b1660005260006020526020604060002054604051908152f35b600080fd5b34610085576040366003190112610085576100a3610181565b602435906001600160a01b036001541633036100ff5760206001600160a01b037fa7f2e839ce4c5bf9d749f44d8926e6c5a58dbbfaaeb7af4f14235f5cd0ca5e88921692836000526000825280604060002055604051908152a2005b60646040517f08c379a000000000000000000000000000000000000000000000000000000000815260206004820152600960248201527f4e6f74206f776e657200000000000000000000000000000000000000000000006044820152fd5b34610085576000366003190112610085576020906001600160a01b03600154168152f35b600435906001600160a01b03821682036100855756fea2646970667358221220aae0a69460ae0406cffd938527bc1704291cc15f6416278bea554b81693d5e0764736f6c634300081c0033",
  "linkReferences": {},
  "deployedLinkReferences": {}
}