{
  "_format": "hh-sol-artifact-1",
  "contractName": "PNKTheosisOracle",
  "sourceName": "contracts/PNKTheosisOracle.sol",
  "abi": [
    {
      "inputs": [],
      "stateMutability": "nonpayable",
      "type": "constructor"
    },
    {
      "anonymous": false,
      "inputs": [
        {
          "indexed": true,
          "internalType": "address",
          "name": "juror",
          "type": "address"
        },
        {
          "indexed": false,
          "internalType": "uint256",
          "name": "theosisScore",
          "type": "uint256"
        }
      ],
      "name": "TheosisUpdated",
      "type": "event"
    },
    {
      "inputs": [
        {
          "internalType": "address",
          "name": "juror",
          "type": "address"
        }
      ],
      "name": "getJurorTheosis",
      "outputs": [
        {
          "internalType": "uint256",
          "name": "",
          "type": "uint256"
        }
      ],
      "stateMutability": "view",
      "type": "function"
    },
    {
      "inputs": [
        {
          "internalType": "address",
          "name": "",
          "type": "address"
        }
      ],
      "name": "jurorTheosis",
      "outputs": [
        {
          "internalType": "uint256",
          "name": "",
          "type": "uint256"
        }
      ],
      "stateMutability": "view",
      "type": "function"
    },
    {
      "inputs": [],
      "name": "owner",
      "outputs": [
        {
          "internalType": "address",
          "name": "",
          "type": "address"
        }
      ],
      "stateMutability": "view",
      "type": "function"
    },
    {
      "inputs": [
        {
          "internalType": "address",
          "name": "juror",
          "type": "address"
        },
        {
          "internalType": "uint256",
          "name": "theosisScore",
          "type": "uint256"
        }
      ],
      "name": "updateTheosis",
      "outputs": [],
      "stateMutability": "nonpayable",
      "type": "function"
    }
  ],
  "bytecode": "0x608060405234801561001057600080fd5b5033600160006101000a81548173ffffffffffffffffffffffffffffffffffffffff021916908373ffffffffffffffffffffffffffffffffffffffff1602179055506104a3806100616000396000f3fe608060405234801561001057600080fd5b506004361061004c5760003560e01c80638da5cb5b14610051578063c13796191461006f578063dede70951461009f578063e0cf80cf146100bb575b600080fd5b6100596100eb565b60405161006691906102d7565b60405180910390f35b61008960048036038101906100849190610323565b610111565b6040516100969190610369565b60405180910390f35b6100b960048036038101906100b491906103b0565b610159565b005b6100d560048036038101906100d09190610323565b61027e565b6040516100e29190610369565b60405180910390f35b600160009054906101000a900473ffffffffffffffffffffffffffffffffffffffff1681565b60008060008373ffffffffffffffffffffffffffffffffffffffff1673ffffffffffffffffffffffffffffffffffffffff168152602001908152602001600020549050919050565b600160009054906101000a900473ffffffffffffffffffffffffffffffffffffffff1673ffffffffffffffffffffffffffffffffffffffff163373ffffffffffffffffffffffffffffffffffffffff16146101e9576040517f08c379a00000000000000000000000000000000000000000000000000000000081526004016101e09061044d565b60405180910390fd5b806000808473ffffffffffffffffffffffffffffffffffffffff1673ffffffffffffffffffffffffffffffffffffffff168152602001908152602001600020819055508173ffffffffffffffffffffffffffffffffffffffff167fa7f2e839ce4c5bf9d749f44d8926e6c5a58dbbfaaeb7af4f14235f5cd0ca5e88826040516102729190610369565b60405180910390a25050565b60006020528060005260406000206000915090505481565b600073ffffffffffffffffffffffffffffffffffffffff82169050919050565b60006102c182610296565b9050919050565b6102d1816102b6565b82525050565b60006020820190506102ec60008301846102c8565b92915050565b600080fd5b610300816102b6565b811461030b57600080fd5b50565b60008135905061031d816102f7565b92915050565b600060208284031215610339576103386102f2565b5b60006103478482850161030e565b91505092915050565b6000819050919050565b61036381610350565b82525050565b600060208201905061037e600083018461035a565b92915050565b61038d81610350565b811461039857600080fd5b50565b6000813590506103aa81610384565b92915050565b600080604083850312156103c7576103c66102f2565b5b60006103d58582860161030e565b92505060206103e68582860161039b565b9150509250929050565b600082825260208201905092915050565b7f4e6f74206f776e65720000000000000000000000000000000000000000000000600082015250565b60006104376009836103f0565b915061044282610401565b602082019050919050565b600060208201905081810360008301526104668161042a565b905091905056fea264697066735822122002430a2f77fc4205262d5c669b5179ef83c259f97f883122060b858bc018e56064736f6c63430008130033",
  "linkReferences": {},
  "deployedLinkReferences": {}
}