{
  "_format": "hh-sol-artifact-1",
  "contractName": "CathedralKlerosBridgeWithVoting",
  "sourceName": "contracts/CathedralKlerosBridgeWithVoting.sol",
  "abi": [
    {
      "inputs": [
        {
          "internalType": "address",
          "name": "_veaRelayer",
          "type": "address"
        },
        {
          "internalType": "address",
          "name": "_theosisOracle",
          "type": "address"
        }
      ],
      "stateMutability": "nonpayable",
      "type": "constructor"
    },
    {
      "anonymous": false,
      "inputs": [
        {
          "indexed": true,
          "internalType": "address",
          "name": "sender",
          "type": "address"
        },
        {
          "indexed": false,
          "internalType": "bytes",
          "name": "data",
          "type": "bytes"
        }
      ],
      "name": "BridgeMessageReceived",
      "type": "event"
    },
    {
      "inputs": [],
      "name": "baseWeight",
      "outputs": [
        {
          "internalType": "uint256",
          "name": "",
          "type": "uint256"
        }
      ],
      "stateMutability": "view",
      "type": "function"
    },
    {
      "inputs": [
        {
          "internalType": "address",
          "name": "juror",
          "type": "address"
        }
      ],
      "name": "getVotingWeight",
      "outputs": [
        {
          "internalType": "uint256",
          "name": "weight",
          "type": "uint256"
        }
      ],
      "stateMutability": "view",
      "type": "function"
    },
    {
      "inputs": [
        {
          "internalType": "bytes",
          "name": "data",
          "type": "bytes"
        }
      ],
      "name": "receiveMessage",
      "outputs": [],
      "stateMutability": "nonpayable",
      "type": "function"
    },
    {
      "inputs": [],
      "name": "theosisOracle",
      "outputs": [
        {
          "internalType": "contract PNKTheosisOracle",
          "name": "",
          "type": "address"
        }
      ],
      "stateMutability": "view",
      "type": "function"
    },
    {
      "inputs": [],
      "name": "veaRelayer",
      "outputs": [
        {
          "internalType": "address",
          "name": "",
          "type": "address"
        }
      ],
      "stateMutability": "view",
      "type": "function"
    }
  ],
  "bytecode": "0x60806040526103e860025534801561001657600080fd5b5060405161086f38038061086f83398181016040528101906100389190610125565b81806000806101000a81548173ffffffffffffffffffffffffffffffffffffffff021916908373ffffffffffffffffffffffffffffffffffffffff1602179055505080600160006101000a81548173ffffffffffffffffffffffffffffffffffffffff021916908373ffffffffffffffffffffffffffffffffffffffff1602179055505050610165565b600080fd5b600073ffffffffffffffffffffffffffffffffffffffff82169050919050565b60006100f2826100c7565b9050919050565b610102816100e7565b811461010d57600080fd5b50565b60008151905061011f816100f9565b92915050565b6000806040838503121561013c5761013b6100c2565b5b600061014a85828601610110565b925050602061015b85828601610110565b9150509250929050565b6106fb806101746000396000f3fe608060405234801561001057600080fd5b50600436106100575760003560e01c80637780031b1461005c5780637f8efb051461007a578063d3fd636414610098578063d5da24b9146100b6578063f953cec7146100e6575b600080fd5b610064610102565b604051610071919061036a565b60405180910390f35b610082610128565b60405161008f91906103a6565b60405180910390f35b6100a061014c565b6040516100ad91906103da565b60405180910390f35b6100d060048036038101906100cb919061042b565b610152565b6040516100dd91906103da565b60405180910390f35b61010060048036038101906100fb91906104bd565b610209565b005b600160009054906101000a900473ffffffffffffffffffffffffffffffffffffffff1681565b60008054906101000a900473ffffffffffffffffffffffffffffffffffffffff1681565b60025481565b600080600160009054906101000a900473ffffffffffffffffffffffffffffffffffffffff1673ffffffffffffffffffffffffffffffffffffffff1663c1379619846040518263ffffffff1660e01b81526004016101b091906103a6565b602060405180830381865afa1580156101cd573d6000803e3d6000fd5b505050506040513d601f19601f820116820180604052508101906101f19190610536565b9050806002546102019190610592565b915050919050565b60008054906101000a900473ffffffffffffffffffffffffffffffffffffffff1673ffffffffffffffffffffffffffffffffffffffff163373ffffffffffffffffffffffffffffffffffffffff1614610297576040517f08c379a000000000000000000000000000000000000000000000000000000000815260040161028e90610623565b60405180910390fd5b3373ffffffffffffffffffffffffffffffffffffffff167f7678df14446f7cf9174ab63a8cfe06bcd39b7a7a388c9a659729da6a06686f2083836040516102df9291906106a1565b60405180910390a25050565b600073ffffffffffffffffffffffffffffffffffffffff82169050919050565b6000819050919050565b600061033061032b610326846102eb565b61030b565b6102eb565b9050919050565b600061034282610315565b9050919050565b600061035482610337565b9050919050565b61036481610349565b82525050565b600060208201905061037f600083018461035b565b92915050565b6000610390826102eb565b9050919050565b6103a081610385565b82525050565b60006020820190506103bb6000830184610397565b92915050565b6000819050919050565b6103d4816103c1565b82525050565b60006020820190506103ef60008301846103cb565b92915050565b600080fd5b600080fd5b61040881610385565b811461041357600080fd5b50565b600081359050610425816103ff565b92915050565b600060208284031215610441576104406103f5565b5b600061044f84828501610416565b91505092915050565b600080fd5b600080fd5b600080fd5b60008083601f84011261047d5761047c610458565b5b8235905067ffffffffffffffff81111561049a5761049961045d565b5b6020830191508360018202830111156104b6576104b5610462565b5b9250929050565b600080602083850312156104d4576104d36103f5565b5b600083013567ffffffffffffffff8111156104f2576104f16103fa565b5b6104fe85828601610467565b92509250509250929050565b610513816103c1565b811461051e57600080fd5b50565b6000815190506105308161050a565b92915050565b60006020828403121561054c5761054b6103f5565b5b600061055a84828501610521565b91505092915050565b7f4e487b7100000000000000000000000000000000000000000000000000000000600052601160045260246000fd5b600061059d826103c1565b91506105a8836103c1565b92508282019050808211156105c0576105bf610563565b5b92915050565b600082825260208201905092915050565b7f4e6f742072656c61796572000000000000000000000000000000000000000000600082015250565b600061060d600b836105c6565b9150610618826105d7565b602082019050919050565b6000602082019050818103600083015261063c81610600565b9050919050565b600082825260208201905092915050565b82818337600083830152505050565b6000601f19601f8301169050919050565b60006106808385610643565b935061068d838584610654565b61069683610663565b840190509392505050565b600060208201905081810360008301526106bc818486610674565b9050939250505056fea264697066735822122092dcca8e01525f8ef6b4034215d2d8d2f743841d0aad7c1efb537f0ce3f3c06064736f6c63430008130033",
  "linkReferences": {},
  "deployedLinkReferences": {}
}