{
  "_format": "hh-sol-artifact-1",
  "contractName": "CathedralKlerosBridgeWithVoting",
  "sourceName": "contracts/CathedralKlerosBridgeWithVoting.sol",
  "abi": [
    {
      "inputs": [
        {
          "internalType": "address",
          "name": "_veaRelayer",
          "type": "address"
        },
        {
          "internalType": "address",
          "name": "_theosisOracle",
          "type": "address"
        }
      ],
      "stateMutability": "nonpayable",
      "type": "constructor"
    },
    {
      "anonymous": false,
      "inputs": [
        {
          "indexed": true,
          "internalType": "address",
          "name": "sender",
          "type": "address"
        },
        {
          "indexed": false,
          "internalType": "bytes",
          "name": "data",
          "type": "bytes"
        }
      ],
      "name": "BridgeMessageReceived",
      "type": "event"
    },
    {
      "inputs": [],
      "name": "baseWeight",
      "outputs": [
        {
          "internalType": "uint256",
          "name": "",
          "type": "uint256"
        }
      ],
      "stateMutability": "view",
      "type": "function"
    },
    {
      "inputs": [
        {
          "internalType": "address",
          "name": "juror",
          "type": "address"
        }
      ],
      "name": "getVotingWeight",
      "outputs": [
        {
          "internalType": "uint256",
          "name": "weight",
          "type": "uint256"
        }
      ],
      "stateMutability": "view",
      "type": "function"
    },
    {
      "inputs": [
        {
          "internalType": "bytes",
          "name": "data",
          "type": "bytes"
        }
      ],
      "name": "receiveMessage",
      "outputs": [],
      "stateMutability": "nonpayable",
      "type": "function"
    },
    {
      "inputs": [],
      "name": "theosisOracle",
      "outputs": [
        {
          "internalType": "contract PNKTheosisOracle",
          "name": "",
          "type": "address"
        }
      ],
      "stateMutability": "view",
      "type": "function"
    },
    {
      "inputs": [],
      "name": "veaRelayer",
      "outputs": [
        {
          "internalType": "address",
          "name": "",
          "type": "address"
        }
      ],
      "stateMutability": "view",
      "type": "function"
    }
  ],
  "bytecode": "0x608034608c57601f6103da38819003918201601f19168301916001600160401b038311848410176091578084926040948552833981010312608c57604b602060458360a7565b920160a7565b600080546001600160a01b039384166001600160a01b0319918216179091556103e86002556001805492909316911617905560405161031f90816100bb8239f35b600080fd5b634e487b7160e01b600052604160045260246000fd5b51906001600160a01b0382168203608c5756fe608080604052600436101561001357600080fd5b60003560e01c9081637780031b146102c5575080637f8efb051461029e578063d3fd636414610280578063d5da24b9146101705763f953cec71461005657600080fd5b3461016b57602036600319011261016b5760043567ffffffffffffffff811161016b573660238201121561016b5780600401359067ffffffffffffffff821161016b57366024838301011161016b576001600160a01b0360005416330361010d577f7678df14446f7cf9174ab63a8cfe06bcd39b7a7a388c9a659729da6a06686f209082602460405192602084528260208501520160408301376000604084830101526040813394601f80199101168101030190a2005b60646040517f08c379a000000000000000000000000000000000000000000000000000000000815260206004820152600b60248201527f4e6f742072656c617965720000000000000000000000000000000000000000006044820152fd5b600080fd5b3461016b57602036600319011261016b576004356001600160a01b03811680910361016b5760206001600160a01b0360015416916024604051809481937fc137961900000000000000000000000000000000000000000000000000000000835260048301525afa90811561027457600091610215575b506002549081018091116101ff57602090604051908152f35b634e487b7160e01b600052601160045260246000fd5b9060203d60201161026d575b601f8101601f1916830167ffffffffffffffff81118482101761025957602091849160405281010312610256575051816101e6565b80fd5b602483634e487b7160e01b81526041600452fd5b503d610221565b6040513d6000823e3d90fd5b3461016b57600036600319011261016b576020600254604051908152f35b3461016b57600036600319011261016b5760206001600160a01b0360005416604051908152f35b3461016b57600036600319011261016b576020906001600160a01b03600154168152f3fea26469706673582212204b7e2a573d0122e548f559990d59f77085a498098ddd48c5cbc8f887336bc81964736f6c634300081c0033",
  "linkReferences": {},
  "deployedLinkReferences": {}
}