{
  "_format": "hh-sol-artifact-1",
  "contractName": "AxiarquiaMultiSigWallet",
  "sourceName": "contracts/AxiarquiaMultiSigWallet.sol",
  "abi": [
    {
      "anonymous": false,
      "inputs": [
        {
          "indexed": true,
          "internalType": "uint256",
          "name": "txId",
          "type": "uint256"
        },
        {
          "indexed": false,
          "internalType": "string",
          "name": "reason",
          "type": "string"
        }
      ],
      "name": "AxiarquiaGateBlocked",
      "type": "event"
    },
    {
      "anonymous": false,
      "inputs": [
        {
          "indexed": true,
          "internalType": "uint256",
          "name": "txId",
          "type": "uint256"
        },
        {
          "indexed": false,
          "internalType": "address",
          "name": "signer",
          "type": "address"
        }
      ],
      "name": "TransactionApproved",
      "type": "event"
    },
    {
      "anonymous": false,
      "inputs": [
        {
          "indexed": true,
          "internalType": "uint256",
          "name": "txId",
          "type": "uint256"
        },
        {
          "indexed": false,
          "internalType": "address",
          "name": "to",
          "type": "address"
        },
        {
          "indexed": false,
          "internalType": "uint256",
          "name": "value",
          "type": "uint256"
        }
      ],
      "name": "TransactionCreated",
      "type": "event"
    },
    {
      "anonymous": false,
      "inputs": [
        {
          "indexed": true,
          "internalType": "uint256",
          "name": "txId",
          "type": "uint256"
        }
      ],
      "name": "TransactionExecuted",
      "type": "event"
    },
    {
      "inputs": [
        {
          "internalType": "uint256",
          "name": "_txId",
          "type": "uint256"
        }
      ],
      "name": "approveTransaction",
      "outputs": [],
      "stateMutability": "nonpayable",
      "type": "function"
    },
    {
      "inputs": [],
      "name": "maxDailyWithdrawal",
      "outputs": [
        {
          "internalType": "uint256",
          "name": "",
          "type": "uint256"
        }
      ],
      "stateMutability": "view",
      "type": "function"
    },
    {
      "inputs": [
        {
          "internalType": "uint256",
          "name": "",
          "type": "uint256"
        }
      ],
      "name": "signers",
      "outputs": [
        {
          "internalType": "address",
          "name": "",
          "type": "address"
        }
      ],
      "stateMutability": "view",
      "type": "function"
    },
    {
      "inputs": [
        {
          "internalType": "address",
          "name": "_to",
          "type": "address"
        },
        {
          "internalType": "uint256",
          "name": "_value",
          "type": "uint256"
        },
        {
          "internalType": "bytes",
          "name": "_data",
          "type": "bytes"
        }
      ],
      "name": "submitTransaction",
      "outputs": [
        {
          "internalType": "uint256",
          "name": "",
          "type": "uint256"
        }
      ],
      "stateMutability": "nonpayable",
      "type": "function"
    },
    {
      "inputs": [],
      "name": "threshold",
      "outputs": [
        {
          "internalType": "uint256",
          "name": "",
          "type": "uint256"
        }
      ],
      "stateMutability": "view",
      "type": "function"
    },
    {
      "inputs": [
        {
          "internalType": "uint256",
          "name": "",
          "type": "uint256"
        }
      ],
      "name": "transactions",
      "outputs": [
        {
          "internalType": "address",
          "name": "to",
          "type": "address"
        },
        {
          "internalType": "uint256",
          "name": "value",
          "type": "uint256"
        },
        {
          "internalType": "bytes",
          "name": "data",
          "type": "bytes"
        },
        {
          "internalType": "bool",
          "name": "executed",
          "type": "bool"
        },
        {
          "internalType": "uint256",
          "name": "approvals",
          "type": "uint256"
        },
        {
          "internalType": "uint256",
          "name": "timestamp",
          "type": "uint256"
        }
      ],
      "stateMutability": "view",
      "type": "function"
    },
    {
      "inputs": [
        {
          "internalType": "uint256",
          "name": "_newMax",
          "type": "uint256"
        }
      ],
      "name": "updateMaxDailyWithdrawal",
      "outputs": [],
      "stateMutability": "nonpayable",
      "type": "function"
    },
    {
      "inputs": [
        {
          "internalType": "address",
          "name": "",
          "type": "address"
        }
      ],
      "name": "whitelist",
      "outputs": [
        {
          "internalType": "bool",
          "name": "",
          "type": "bool"
        }
      ],
      "stateMutability": "view",
      "type": "function"
    }
  ],
  "bytecode": "0x60808060405234601557610a37908161001b8239f35b600080fdfe6080604052600436101561001257600080fd5b60003560e01c80632079fb9a14610898578063242232d1146105af57806342cde4e8146105915780639ace38c21461042d5780639b19251a146103ee578063b87d1bc5146103d0578063ba476289146103b75763c64274741461007457600080fd5b346103b25760603660031901126103b25761008d610984565b6024356044359167ffffffffffffffff83116103b257366023840112156103b25782600401356100bc8161099a565b936100ca6040519586610962565b81855236602483830101116103b257816000926024602093018388013785010152600080549290805b848110610378575b50610108919293506109b6565b6002548111801590610357575b156103135760045491680100000000000000008310156102fd57600183016004556001600160a01b0361014784610909565b50911693847fffffffffffffffffffffffff0000000000000000000000000000000000000000835416178255826001830155600282019080519067ffffffffffffffff82116102fd5761019a8354610928565b601f81116102b5575b509160209693918695938890601f831160011461022557918060409694927ffd27d176b6ebb21e0182c0e43df5818e0d632867e1eb47c383c58d221205fce398969460009261021a575b50508160011b916000199060031b1c19161790555b600642910155825191825286820152a2604051908152f35b0151905038806101ed565b90601f1983169184600052816000209260005b81811061029b57509260019285927ffd27d176b6ebb21e0182c0e43df5818e0d632867e1eb47c383c58d221205fce39a989660409a989610610282575b505050811b019055610202565b015160001960f88460031b161c19169055388080610275565b8284015185558b9a50600190940193928c01928c01610238565b836000526020600020601f840160051c810191602085106102f3575b601f0160051c01905b8181106102e757506101a3565b600081556001016102da565b90915081906102d1565b634e487b7160e01b600052604160045260246000fd5b606460405162461bcd60e51b815260206004820152601e60248201527f4158494152515549413a20616d6f756e74206f722077686974656c69737400006044820152fd5b506001600160a01b038216600052600360205260ff60406000205416610115565b6001600160a01b03610389826108d9565b905460039190911b1c1633146103a1576001016100f3565b5091925082915060016101086100fb565b600080fd5b346103b25760203660031901126103b257600435600255005b346103b25760003660031901126103b2576020600254604051908152f35b346103b25760203660031901126103b2576001600160a01b0361040f610984565b166000526003602052602060ff604060002054166040519015158152f35b346103b25760203660031901126103b2576004356004548110156103b25761045490610909565b506001600160a01b0381541690600181015460028201916040519283600082549261047e84610928565b808452936001811690811561056f5750600114610528575b506104a992509593959492940382610962565b60ff6003840154169260066004820154910154906040519586948552602085015260c060408501528251928360c086015260005b84811061051057505060e094600086858701015215156060850152608084015260a0830152601f80199101168101030190f35b602082820181015160e08a84010152889650016104dd565b90506000929192526020600020906000915b8183106105535750509060206104a99282010187610496565b6020919350806001915483858a0101520191019091859261053a565b9050602092506104a994915060ff191682840152151560051b82010187610496565b346103b25760003660031901126103b2576020600154604051908152f35b346103b25760203660031901126103b257600435600080600054915b828110610861575b506105de91506109b6565b6105e781610909565b506003810160ff81541661081d57600582016001600160a01b0333166000528060205260ff604060002054166107d9576001600160a01b0333166000526020526040600020600160ff1982541617905560048201805490600182018092116107c357819055837f924813d717e221b5f46dcd8a56da1679e4612584ab3237d55e5faabf6f6a30796020604051338152a2600154111561068257005b600160ff198254161790556001600160a01b038154169060026001820154910190604051916000908054906106b682610928565b91600181169081156107ac5750600114610777575b5050916000939181859403925af13d15610772573d6106e98161099a565b906106f76040519283610962565b8152600060203d92013e5b1561072e577f15ed165a284872ea7017f03df402a0cadfbfab588320ffaf83f160c2f82781c7600080a2005b606460405162461bcd60e51b815260206004820152601060248201527f457865637574696f6e206661696c6564000000000000000000000000000000006044820152fd5b610702565b90915060005260206000206000905b828210610798575050820181836106cb565b600181602092548488015201910190610786565b60ff191686525050801515028301905081836106cb565b634e487b7160e01b600052601160045260246000fd5b606460405162461bcd60e51b815260206004820152601060248201527f416c726561647920617070726f766564000000000000000000000000000000006044820152fd5b606460405162461bcd60e51b815260206004820152601060248201527f416c7265616479206578656375746564000000000000000000000000000000006044820152fd5b6001600160a01b03610872826108d9565b905460039190911b1c16331461088a576001016105cb565b5050506105de6001836105d3565b346103b25760203660031901126103b2576004356000548110156103b2576001600160a01b036108c96020926108d9565b90549060031b1c16604051908152f35b6000548110156108f3576000805260206000200190600090565b634e487b7160e01b600052603260045260246000fd5b6004548110156108f35760046000526007602060002091020190600090565b90600182811c92168015610958575b602083101461094257565b634e487b7160e01b600052602260045260246000fd5b91607f1691610937565b90601f8019910116810190811067ffffffffffffffff8211176102fd57604052565b600435906001600160a01b03821682036103b257565b67ffffffffffffffff81116102fd57601f01601f191660200190565b156109bd57565b606460405162461bcd60e51b815260206004820152600c60248201527f4e6f742061207369676e657200000000000000000000000000000000000000006044820152fdfea264697066735822122069cdad132f57851f9e66e5720ad375051f940f6ff17e93ea3ff9cf292cd4841564736f6c634300081c0033",
  "linkReferences": {},
  "deployedLinkReferences": {}
}